:020000040000FA
:10000000582B000435630000796300000DC6000022
:100010001B0400007F6300008163000000000000FB
:1000200000000000000000000000000083630000EA
:1000300085630000000000005BC50000770300003E
:100040008B630000911F00008B6300008B63000036
:100050008B6300008B6300008B6300008B630000E8
:100060008B6300008B6300008B6300008B630000D8
:100070008B6300008B6300002D1E00008B6300006B
:100080008F1F00008B6300008B6300008B630000F8
:1000900081550000795400008B6300008B630000E1
:1000A0008B6300008B6300008B6300008B63000098
:1000B0008B6300008B6300008B6300008B63000088
:1000C0008B6300008B6300008B6300008B63000078
:1000D0008B6300008B6300008B6300008B63000068
:1000E00000F002F800F065F80AA090E8000C8244E5
:1000F0008344AAF10107DA4501D100F05AF8AFF2C2
:10010000090EBAE80F0013F0010F18BFFB1A43F0F5
:100110000103184708250200282502000A444FF071
:10012000000C10F8013B13F0070408BF10F8014B56
:100130001D1108BF10F8015B641E05D010F8016B9B
:10014000641E01F8016BF9D113F0080F1EBF10F8FF
:10015000014BAD1C0C1B09D16D1E58BF01F801CB22
:10016000FAD505E014F8016B01F8016B6D1EF9D5A5
:100170009142D6D3704700000023002400250026BA
:10018000103A28BF78C1FBD8520728BF30C148BFFA
:100190000B6070471FB51DF0BDF91DF07BF9040021
:1001A000002000211DF0A0F9401C60601FBD10B5AB
:1001B00010BD1DF04AF91146FFF7ECFF00F093F86F
:1001C0001DF07AF903B4FFF7F2FF03BC1DF07EF9CE
:1001D00038B5044602200BF0DDFD1CA11DA005F082
:1001E000B7F812F039FD14F09BFD002003461AA267
:1001F0001AA1009017A013F0C3FC18B918A00AF0B8
:100200005AFB02E01DA00AF056FB02F051FC02F07E
:10021000D9FA23A005F0BAFE0EF0C2F900F03CF9BD
:1002200038BD1CB514200A214FF400630022CDE92B
:100230000010AFF263011CA00BF0ECFC044614B1FB
:1002400020460BF09BFC00201CBD00007370693140
:100250003000000073643000656C6D002F000000FA
:1002600046696C652053797374656D20696E697495
:1002700069616C697A6564210A00000046696C65F1
:100280002053797374656D20696E697469616C7A45
:100290006174696F6E206661696C6564210A000093
:1002A0006932633100000000696E6974000000006B
:1002B00010B500F068F80AF02EFB08F095F90BF085
:1002C000B2F80CF021F80B494FF000500AF0AEFCE8
:1002D0000BF024FAFFF7A5FF0CF022F808F0A2FBC0
:1002E0000BF038FA10BD10B50CF020F9FFF7E0FF65
:1002F000002010BD0080022070470000FFFFFFFFBC
:1003000010B5002807DA4A07140E474A00F00F0319
:100310001B1FD45403E04A07130E444A135410BD64
:1003200010B501460846802808D200F01F030122BC
:100330009A403F4B440943F8242005E0A0F1800295
:10034000012393403B4A536000BF00BF00BF00BF82
:10035000802809D200F01F0301229A40344B203339
:10036000440943F8242005E0A0F1800201239340D2
:10037000304A936010BD10B509F0B8FE08F043F99B
:1003800009F0C3FE10BD10B50020274910390860E0
:1003900006F044F9284800686421B0FBF1F4601EBF
:1003A000B0F1807F00D30FE0601E4FF0E021486184
:1003B00007214FF0FF30FFF7A3FF00204FF0E021AF
:1003C00088610720086100BF07216FF00100FFF777
:1003D00097FF0B2006F017FA0D2006F014FA00BF65
:1003E0000E2006F010FA0F2006F00DFA0E20FFF78F
:1003F00097FF0F20FFF794FF00BF01F02FFD0FA024
:100400000AF0CEFA02F005F910BD10B50D494FF013
:1004100000500AF00BFC002010BD10B50AA00AF035
:100420004AFA0CF0F3F810BD18ED00E000E400E02B
:100430002001004000000440D00000047561727487
:1004400030000000008002204D656D6F72792046FB
:1004500061756C74210A00000DE00121022001F099
:10046000F4FA64200BF096FC0021022001F0EDFA72
:1004700064200BF08FFCF0E70DE00121084601F04D
:10048000E4FA64200BF086FC0021012001F0DDFA83
:1004900064200BF07FFCF0E770B50024002501F02C
:1004A000B6FA002070BD000002460020704710B56B
:1004B000044624B93222FD49FDA00AF0D8FA0020F2
:1004C0002063A063E0632062FE480068E062E06AA7
:1004D00000B910BD17F056F82060FBA008F0B6F880
:1004E0002064206C38B1F949206C08F0F1F9022140
:1004F000206C08F019F900BFEBE710B5044624B9E9
:100500004B22F349EAA00AF0B2FA206C10B1206C39
:1005100008F04EF9206817F03BF810BD10B54420E4
:100520000AF0EAFB044614B12046FFF7C0FF20465C
:1005300010BD10B5044624B96622E649DCA00AF0D5
:1005400096FA2046FFF7D9FF20460AF0D6FC10BDE8
:100550002DE9F0410446A06B20B1A26BD4E90B0158
:1005600009F07BFEA06BC0F50050460A7602A76B2F
:10057000E26AD1193246D4E90930984705464DB1AF
:10058000E06A206300206063A06B2844A063002021
:10059000BDE8F081D0A00AF08EF94FF0FF30F7E708
:1005A000F8B50446206B20B140F62871A06B884254
:1005B00006D22046FFF7CCFF10B14FF0FF30F8BD58
:1005C000A16B206B16F0EEFF6063606B002806DA0B
:1005D000C7A0A16B0AF06FF90020A063EFE7D4E990
:1005E0000C0108442063666BD4E90D10401AA06327
:1005F000A06BB0F5806F06D22046FFF7A9FF10B1BF
:100600004FF0FF30DBE7A06BE063C048006858B9EB
:1006100000200090BE49206804F138020B6804F104
:10062000300117F069F80546B848006801280BD179
:1006300000200090B749206804F138020B6804F1EB
:10064000300117F059F80546D4E90E10401A064457
:10065000B14800683044B0490860206A401C2062FC
:10066000002D2ED015F1020F12D0B5F1FF3F13D19E
:10067000AAA00AF020F90020A0632046FFF768FF37
:1006800028B1ADA00AF017F94FF0FF3097E717E057
:10069000B1A00AF010F913E02946B6A0A26B0AF047
:1006A0000AF9A06B30B1A06B401EA063206B401C08
:1006B000206304E0E422B749B7A00AF0D8F900BFEC
:1006C00081E0B648007800282ED1211D206816F060
:1006D000B1FFB349E068096888421FD0B049E068BB
:1006E0000860B0A0E1680AF0E6F8B2A061680AF01C
:1006F000E2F8B4A0A1680AF0DEF8B6A0E1690AF059
:10070000DAF8B8A021690AF0D6F8BBA061690AF04E
:10071000D2F8A34A0221206C08F0B8F8BB496069FE
:10072000086001209D490870B8480068002847DD2E
:10073000A068012833D1B5490968481E27E07349EC
:10074000096879B972490968095C714A126802F846
:1007500010106F490968095C012202EB40026C4BE2
:100760001B6899546949096801290FD169490968C9
:10077000095C684A126802F8101066490968095C49
:10078000012202EB4002634B1B689954401E002873
:10079000D5DA9E49096849009C4A116000BF9B4810
:1007A000006840009A4908609A48006810B9012022
:1007B000984908604FF0FF31974808F044FA02E08A
:1007C00096A00AF078F80020F9E62DE9F0410446F9
:1007D0000E461746A0463A463146404613F039FCCD
:1007E0000546002D02DC0020BDE8F0812846FBE72D
:1007F00070B506464648006858B942F228300AF0FB
:100800007BFA434908600846006810B986A00AF0E0
:1008100052F84048006858B942F228300AF06CFAA1
:100820003C4908600846006810B985A00AF043F802
:10083000384802683648016887A00AF03CF8214829
:10084000006858B94FF400500AF056FA1D49086084
:100850000846006810B987A00AF02DF81948016809
:100860008CA00AF028F80023022291A16A4808F01F
:100870006FF910B192A00AF01EF899A00AF01BF8C7
:100880000AF051FD00209E490860204908609D49FA
:1008900008606049086064215F4808F0D4F90022CC
:1008A0001146304613F084FB05462DE11ED50100AC
:1008B0006465636F64657220213D2052545F4E551C
:1008C0004C4C000000000004736E6400A90400009A
:1008D0002FD5010042D5010063616E277420726537
:1008E0006164206D6F726520646174610A000000AC
:1008F0006F75746F662073796E632C2062797465EE
:10090000206C6566743A2025640A0000A800000483
:100910009000000494000004080000044552525F57
:100920004D50335F494E444154415F554E4445520A
:10093000464C4F570A0000006D70335F6465636F6B
:100940006465725F66696C6C5F627566666572206D
:10095000213D20300D0A00004552525F4D50335F5B
:100960004D41494E444154415F554E444552464CD9
:100970004F570A00756E6B6E6F776E206572726FDF
:10098000723A2025642C206C6566743A2025640A2E
:100990000000000055D50100300000000C000004EC
:1009A0000400000473616D70726174652025640D2C
:1009B0000A00000062697472617465202025640D6C
:1009C0000A0000006E4368616E7320202025640DCC
:1009D0000A00000076657273696F6E202025640D31
:1009E0000A0000006269747350657253616D706C27
:1009F00065202025640D0A006F757470757453614D
:100A00006D7073202025640D0A00000010000004A2
:100A1000A0000004AC0000043C0600046E6F206FD0
:100A200075747075740D0A006D616C6C6F6320775E
:100A300061765F62756630206661696C65640A0084
:100A40006D616C6C6F63207761765F6275663120D3
:100A50006661696C65640A006D616C6C6F63207718
:100A600061765F627566302631206F6B20257820B5
:100A700025780A006D616C6C6F63206D70335F6662
:100A8000645F627566666572206661696C65640A9A
:100A9000000000006D616C6C6F63206D70335F66E9
:100AA000645F627566666572204F4B2025780A0088
:100AB0007761765F706C61795F73656D000000002F
:100AC000696E697420666C61635F73656D20736520
:100AD0006D6170686F7265206661696C65640A009B
:100AE000437265617420706C61792073656D20615B
:100AF0006E6420696E6974206F6B200D0A0000001F
:100B0000A40000049C000004002D28DBFFF706FD74
:100B1000044684B1AFF24D306062A56200201049F6
:100B2000086000BF2046FFF73BFD401C0028F9D1BC
:100B30002046FFF7FEFC0B4800680AF0DEF90A4881
:100B400000680AF0DAF9094800680AF0D6F90AF0F4
:100B5000EAFB07A009F0AFFE284613F058FA70BD73
:100B60000800000490000004940000040000000449
:100B70006D703320706C617920656E64200D0A0001
:100B80000246002070472DE9F04F8BB08246B248F4
:100B9000006858B942F228300AF0AEF8AE49086051
:100BA0000846006810B9ADA009F085FEB14800689C
:100BB00058B942F228300AF09FF8AE49086008465A
:100BC000006810B9ACA009F076FEAA480268A248F5
:100BD0000168AFA009F06FFE0AF0A5FB0023022216
:100BE000B2A1B64807F0B4FF10B1B5A009F063FE9A
:100BF000BBA009F060FE0020C1490860C14908603F
:100C0000C1490860C14908606421AC4808F01BF87C
:100C100000221146504613F0CBF90646002E7CDB2D
:100C200000BF042203A9304613F013FA0546042D31
:100C300005D0B7A009F03FFE0BB0BDE8F08F04224D
:100C4000B9A103A81CF091F888B9082201A930467F
:100C500013F0FFF905460422B5A102A81CF085F89F
:100C600020B102A9B4A009F026FEE5E724E00422A1
:100C7000B8A103A81CF079F8F0B9142205A93046F0
:100C800013F0E7F90546142D03D0B4A009F013FEC4
:100C9000D2E70598102807D00598A0F1100202A904
:100CA000304613F0D6F900BFBDF81A00022803D071
:100CB000B2A009F000FEBFE70422B8A103A81CF00F
:100CC00054F80028ADD1042202A9304613F0C1F92E
:100CD0000546042D03D0B3A009F0EDFDACE70020DC
:100CE0008146804602990898B1FBF0F44FF46160A8
:100CF000B4FBF0F048B14FF46160B4FBF0F8C8EB1E
:100D00004810C0EB0820A4EB00143C20B4FBF0F02A
:100D100040B13C20B4FBF0F900E09AE0C9EB0910C7
:100D2000A4EB80040AF000FF83460622A3A11CF076
:100D30001CF8B0B9A3A009F0BEFDBDF81A10A4A01C
:100D400009F0B9FDA6A0079909F0B5FDBDF8261078
:100D5000A8A009F0B0FD23464A464146AAA009F0E2
:100D6000AAFDB0A007F072FC07461FB9AEA009F0BB
:100D7000A2FD61E70798029002AA0221384607F017
:100D800085FD20B1AFA0029909F095FD54E7BA495D
:100D9000384607F09DFD0221384607F0C5FC0020CB
:100DA0005A49086057490860B4A009F084FD05F06D
:100DB0000AFD0A90B6A00A9909F07DFD05F064FDD0
:100DC0000A90B7A00A9909F076FD64213B4807F024
:100DD0003AFF00BF4B48006838B94FF400521E4834
:100DE0000168304613F035F9054646480068012889
:100DF00006D142031F480168304613F02AF9054620
:100E00004FF40050AA4908604048006810B901201A
:100E10003E4908604FF0FF31284807F014FF002DCD
:100E2000D8D1A4A009F047FD6421244807F00BFFA6
:100E3000384607F0BDFC084800680AF05EF80D4827
:100E400000680AF05AF80AF06EFA304613F0DFF83C
:100E500000BF00BFF0E60000900000046D616C6C04
:100E60006F63207761765F62756630206661696CBA
:100E700065640A00940000046D616C6C6F632077F8
:100E800061765F62756631206661696C65640A002F
:100E90006D616C6C6F63207761765F62756630267A
:100EA00031206F6B2025782025780A007761765FE6
:100EB000706C61795F73656D000000003C06000492
:100EC000696E697420666C61635F73656D2073651C
:100ED0006D6170686F7265206661696C65640A0097
:100EE000437265617420706C61792073656D206157
:100EF0006E6420696E6974206F6B200D0A0000001B
:100F0000A4000004A80000049C000004AC0000043D
:100F1000726561642072696666206368756E6B2015
:100F20006661696C210D0A005249464600000000C6
:100F300057415645000000005249464620666F72F0
:100F40006D6174206572726F723A252D34730D0ACB
:100F500000000000666D742000000000726561648E
:100F6000207269666620666F726D617420626C6FB4
:100F7000636B206661696C210D0A00005B6572720B
:100F80005D206F6E6C7920737570706F7274207352
:100F9000746572656F210D0A000000006461746160
:100FA00000000000726561642064617461207369EF
:100FB0007A65206661696C210D0A000074736865AA
:100FC0006C6C000077617620696E666F3A0D0A00DE
:100FD0004368616E6E656C733A2564200000000002
:100FE00053616D706C65735065725365633A256427
:100FF000200000004269747350657253616D706C1B
:10100000653A25640D0A0000706C61792074696D81
:10101000653A20253032643A253032643A25303240
:10102000640D0A00736E6400617564696F20646505
:1010300076696365206E6F7420666F756E64210D2E
:101040000A000000617564696F20646576696365F4
:1010500020646F65736E277420737570706F72747F
:1010600020746869732073616D706C65207261749F
:10107000653A2025640D0A00810B000072656164E9
:101080002066696C6520706167650D0A00000000CC
:101090004D61696E436C6B202564202000000000C8
:1010A000537973436C6B20256420200D0A000000E7
:1010B000A0000004636C6F73656420776176207014
:1010C000616C790D0A00000070B50446200C00F038
:1010D0007FFB0546A0B200F07BFB064645EA0640D2
:1010E00070BD10B50446DDA0D4E9041209F0E3FB9D
:1010F000E1A0D4E9061209F0DEFBE5A0216A09F0BF
:10110000DAFBE8A0616A09F0D6FBEBA0E16A09F01E
:10111000D2FBEFA0E16C09F0CEFBF3A0A16B09F0CC
:10112000CAFBF7A0616C09F0C6FBFAA0A16C09F03C
:10113000C2FB10BD2DE9F04FC9B081460C464FF0FF
:101140000008C24600BF019801900022114648469F
:1011500012F0CFFF002803DA002049B0BDE8F08F7D
:10116000042209A9484612F074FF042801DA00207D
:10117000F3E70422EDA109A809F090F808B10020D6
:10118000EBE70420E064BFE0042209A9484612F01E
:1011900060FF042801DA0020DFE79DF8240000F05A
:1011A000800A9DF8250000049DF8261040EA0120E1
:1011B0009DF8271040EA0106301DE16C0844E06408
:1011C0009DF8240000F07F00002868D1324609A96C
:1011D000484612F03EFF002801DA0020BDE704A9CE
:1011E000484613F005F8069820649DF825009DF800
:1011F000241040EA012020619DF827009DF8261068
:1012000040EA012060619DF8280000049DF8291043
:1012100040EA01209DF82A100843A0619DF82B00A8
:1012200000049DF82C1040EA01209DF82D10084381
:10123000E0619DF82E0000039DF82F1040EA011098
:101240009DF8301040EA111020629DF83000C0F384
:101250004200401C60629DF83000C007C00E9DF83F
:10126000311040EA1110401CE0629DF83200000687
:101270009DF8331040EA01409DF8341040EA012007
:101280009DF835100843A063216AA06BB0FBF1F014
:101290004FF47A71484360644FF0010834E09DF8E0
:1012A000240000F07F00032825D11CE0122209A9A8
:1012B000484612F0CEFE0746122F01DA00204CE716
:1012C000F61B09AD01CDFFF7FFFE029001CDFFF740
:1012D000FBFE039001CDFFF7F7FE019001CDFFF774
:1012E000F3FE834600BF122EE0DA01223146484663
:1012F00012F0FFFE08E001223146484612F0F9FEE6
:10130000002801DA002028E7BAF1000F3FF43CAFD3
:10131000B8F1000F09D0E16C206C401AC000616C7C
:1013200090FBF1F0A064012017E7002015E70246CA
:10133000002070472DE9F041074600207D490860F4
:10134000002302227CA1804807F002FC10B17FA09C
:1013500009F0B1FA86A009F0AEFA8D48006858B9D4
:1013600044F6382009F0C8FC89490860084600683E
:1013700010B988A009F09FFA8C48006858B944F663
:10138000382009F0B9FC894908600846006810B99E
:1013900087A009F090FA8C48006858B944F63820C4
:1013A00009F0AAFC884908600846006810B987A0BF
:1013B00009F081FA844803687C480268744801682F
:1013C0008AA009F078FA09F0AEFF00209049086081
:1013D00090490860904908609049086064215A4823
:1013E00007F031FC00221146384612F0E1FD8C492D
:1013F000086008460068002806DA394689A009F026
:101400005AFA0120BDE8F0818BA007F01FF90646CB
:101410003EB18A49304607F05BFA0221304607F0B8
:1014200083F987497E480068FFF784FE8448FFF708
:1014300058FE8348006982494969884209D1804839
:101440004069B0F5905F04DC7D48C069B0F5A04FFD
:1014500003DD7CA009F02FFA06E10AE10A0D202045
:10146000426C6F636B73697A653A202564202E2E77
:101470002025640A0D00000020204672616D65730E
:10148000697A653A202564202E2E2025640A0D00F5
:10149000202053616D706C65726174653A2025641B
:1014A0000A0D000020204368616E6E656C733A205F
:1014B00025640A0D0000000020204269747320702A
:1014C00065722073616D706C653A2025640A0D00A9
:1014D00020204D65746164617461206C656E677471
:1014E000683A2025640A0D002020546F74616C2036
:1014F00053616D706C65733A20256C750A0D0000A0
:1015000020204475726174696F6E3A202564206DE5
:10151000730A0D002020426974726174653A2025B7
:1015200064206B6270730A0D00000000664C61431A
:1015300000000000140000047761765F706C617930
:101540005F73656D000000003C060004696E6974FD
:10155000207761765F706C61795F73656D2073656C
:101560006D6170686F7265206661696C65640A0000
:10157000437265617420706C61792073656D2061C0
:101580006E6420696E6974206F6B200D0A00000084
:10159000900000046D616C6C6F63207761765F6210
:1015A000756630206661696C65640A009400000409
:1015B0006D616C6C6F63207761765F627566312058
:1015C0006661696C65640A00980000046D616C6C6A
:1015D0006F6320706C61795F74656D705F627566B2
:1015E000666572206661696C65640A006D616C6C89
:1015F0006F63207761765F6275663026312074658F
:101600006D70206F6B2025782025782025780A00C2
:10161000A4000004A80000049C000004AC00000426
:101620001C00000443616E206E6F74207061727341
:10163000652025730A000000736E64002F130000FC
:10164000880200040A0D4F6F20446F206E6F7420D3
:10165000737570706F727420746869732066696C3A
:101660006521210A0D0000005CA009F024F900208A
:10167000C8E6694A0221304607F008F967A009F078
:101680001AF94FF4A04009F037FB6B4908606BA0D2
:1016900009F011F94FF4A042674801686E480068EC
:1016A00012F0D7FC6D4908606FE06D4800685A4938
:1016B0002039C8666B48006890B96B480068886636
:1016C00069480368654802685B48016852482038E9
:1016D0001BF0D2F9002803DA64A009F0ECF858E016
:1016E00060480068012814D1664800684A492039DA
:1016F000886664480368594802684F48016846484C
:1017000020381BF0B9F9002803DA58A009F0D3F803
:101710003FE0414920398868C11700EB5171CD1075
:101720004E480068421B444800684119424800681E
:1017300008F093FD49480068401B48490860084686
:101740000068C0F5A0423C4800680B461B68C11801
:101750004148006812F07DFC0446002C04DD3F483F
:10176000006820443D4908602B48203840698000CB
:10177000454908604548006810B9012043490860A0
:101780004FF0FF31424807F05EFA34480068002805
:101790008BD100BF304607F00BF83D4807F0F1F958
:1017A0002548006809F0A9FB2F48006809F0A5FB4F
:1017B0003448006809F0A1FB2948006809F09DFB46
:1017C00009F0B1FD2448006812F021FC002019E660
:1017D0000146081240EA012080B27047596F752017
:1017E00063616E2063686F6F736520616E6F7468EC
:1017F000657220436F6E7665727465722E537563E1
:101800006820617320666F6F626172323030302001
:101810005E5F5E0A0D000000A802000472745F6D36
:10182000616C6C6F6320666C61635F66696C656296
:1018300075660D0A000000001800000472745F6DE8
:10184000616C6C6F6320666C61635F66696C656276
:101850007566206F6B0D0A001C0000041400000464
:1018600098000004A8000004900000044445434F81
:101870004445204552524F522C2041424F52544928
:101880004E470A0094000004A0000004AC000004CD
:101890003C06000410B5044690231D2200218E480A
:1018A00000F001F990230A2201218B4800F0FBF897
:1018B000902309220121884800F0F5F81D2200211B
:1018C000864800F0FBF800231D221946834800F0EB
:1018D000F0F80A220121814800F0F0F801230A22E1
:1018E00019467E4800F0E5F8092201217B4800F006
:1018F000E5F8012309221946784800F0DAF81D209E
:10190000774908640021764841640A2181640121F5
:10191000C1640921016501214165002010BD024615
:10192000002070470146002070472DE9F0478046AF
:101930000D4691461E460024B2464F4668488045F3
:1019400004D04422674968A009F091F8A819032837
:1019500004D94522634969A009F089F800240EE002
:1019600029195F48403050F831005C49405C10B1A3
:101970000020387001E0012038707F1C641C544541
:10198000EED32046BDE8F0872DE9F04707460D4627
:1019900090461E460024B146C2465148874204D0B4
:1019A0005D225C4950A009F062F8A819032804D907
:1019B0005E22584951A009F05AF800241FE09AF815
:1019C000000000280DDD2B194548403010F8332069
:1019D0002B1900EBC30001790023404800F069F89F
:1019E0000CE02B193E48403010F833202B1900EB47
:1019F000C30001790123394800F05BF8641C4C45B1
:101A0000DDD32046BDE8F08703460020704710B5BF
:101A1000002033490875C86108623F4848623F4862
:101A200088623F48C8623F4808633F4848633F4870
:101A300088630020C86303223DA1294806F02CFEDC
:101A40002748FFF727FF002010BD70B504460D465C
:101A500015B1012D18D10BE02148403010F8342089
:101A600000EBC400017901231C4800F022F80CE0CF
:101A70001B48403010F8342000EBC40001790023EB
:101A8000164800F016F800E000BF00BF70BD38B582
:101A900004460D46E8B2009001236A4621461048EC
:101AA000FFF772FF38BD10B500EBC11444F82230C7
:101AB00010BD10B500EB4114A35410BD10B500F5D6
:101AC000005353F8214001239340234300F5005471
:101AD00044F8213010BD00000010004000C0084054
:101AE000F802000465D50100646576203D3D20269E
:101AF0006C65642E706172656E74000028706F737F
:101B0000202B2073697A6529203C3D204C45445F99
:101B10004E554D0071D50100951800001F190000A9
:101B2000251900002B19000089190000091A00006E
:101B30006C65640030B503461446B3FBF1F000FB5E
:101B40001132B3FBF1F0401C4843C51A954200D254
:101B50002A462068904201D8002030BD226095427C
:101B600001D1012000E00020401CF6E7F8B5044652
:101B70000025681E0090608928B9207A08B1207A73
:101B800000E01020054612E0626802FB05F16A469B
:101B90002068FFF7CFFF064606B907E0701E608198
:101BA000207AA84200D104E0257200BF6D1E042DEA
:101BB000EADC00BF207A08B9D048F8BD217A606815
:101BC00048432168B1FBF0F0618908446081608975
:101BD00008B9CA48F1E76089217A48432168B1FB16
:101BE000F0F060600020E8E710B502460B460BB14C
:101BF000102000E005200446102107E0B2FBF1F0C0
:101C000001FB102008B9084610BD491EA142F5DAB3
:101C10000020F9E7F0B50246140E160201F58071B6
:101C20004FF08070B0FBF1F303FB01F0C0F1807561
:101C300005FB04F006EB0020B0FBF1F703FB04F01A
:101C400007EB0020F0BD2DE9F84F04464FF0FF30C0
:101C50000090D4F800A0257A00262CE0AB4631464F
:101C60005046FFF7D7FF07466A4638466168FFF7D8
:101C700061FF80466068B7FBF0F04044A0F10109C5
:101C8000B8F1000F0DD025B1B9FBF5F005FB1090B0
:101C900038B93DB9E9B24846FFF7A6FFB0F1000BED
:101CA00000D107E084F808B066722760A8F101004F
:101CB000608100BF761CFF2ED0D9BDE8F88FF0B54B
:101CC00085B006460F4626B938228D498DA008F00A
:101CD000CEFEF46B206804F064FF0546002D02DAA6
:101CE000284605B0F0BD00BF8B48006800F0070033
:101CF000072804D102208849086000BF00BF04F013
:101D000045FE02903868039000208DF81000ADF871
:101D100012008DF811009DF8110010B902A8FFF70C
:101D200092FF02A8FFF722FF04200090BDF81200E6
:101D3000ADF804009DF810008DF806007749206882
:101D400008609DF80600401E00F00F0021688862C0
:101D5000BDF80400401E80B22168086270490098F6
:101D6000084040F00100216808609DF81100FF2143
:101D700041EA0022684BB8331A6000BF042066496C
:101D8000383941F8250000BF02202168C1F8080E4B
:101D90002068D0F8100E40F008002168C1F8100E3D
:101DA00000209EE72DE9F04105460E46174625B96D
:101DB0006F225C4953A008F05AFEEC6B102E08D03D
:101DC000112E0DD12068006920F001002168086102
:101DD00006E02068C06840F001002168C86000BFCC
:101DE00000BF0020BDE8F08110B50246D36B00BFF4
:101DF0001868846804F004000028F9D01868C0F856
:101E0000201E012010BD10B50146CA6B1068D0F825
:101E1000044E04F0400030B11068D0F8300EC0F32A
:101E20000803184610BD4FF0FF30FBE71CB508F063
:101E30005DF93D48006800F01F00019001980828F6
:101E400004D1012139480AF047FE03E03848406ACE
:101E5000009000BF00BF08F058F91CBD7CB53549A3
:101E600003C9CDE90001344C3448304908640846C0
:101E7000DDE90012C0E91112C46340F281130022AF
:101E800011462F4800F033F840F28113012200215F
:101E90002B4800F02CF8206806F0FDF800B1F0BEE9
:101EA00094F904000921002807DA4A07150E254A8B
:101EB00000F00F031B1FD55403E04A07130E224AFC
:101EC000135400BF94F9040000F01F020121914057
:101ED0004209920002F1E022C2F8001100BF23463D
:101EE00040F2431219A111480AF07BFD7CBD10B5E8
:101EF00000EBC11444F8223010BD000006000800B9
:101F000094D5010073657269616C20213D205254A3
:101F10005F4E554C4C000000E802004020000004D9
:101F2000FDDBFD00A2D50100186E0840500300043F
:101F300000600840B0D501002400000480D50100F5
:101F40000010004018ED00E000E400E075617274DC
:101F50003000000010B54FF4706240F622631B5A47
:101F600040F67F749443234040F62264235200BF1E
:101F70004B1E1B071A0D23461B5A40F67F74234045
:101F8000134340F62264235200BF10BD70477047D0
:101F900010B508F0ABF800BFFE48406800F0040040
:101FA00078B30521FB4800F057FB00BFF94800F06B
:101FB00057FB00F020000028F8D10521F54800F07B
:101FC0005DFB0521F34800F04EFB0521F14800F0D0
:101FD0003FFB0421EF4800F03FFB00BFED4800F05D
:101FE0003FFB00F010000028F8D10421E94800F080
:101FF00045FB0421E74800F036FB0421E54800F0EA
:1020000027FB00BFE348406800F0020080B3E148CE
:1020100000F02DFB00F0100088B10421DD4800F035
:1020200029FB0120DC490870DC480078012806D132
:1020300000200870D9490870D94806F090FED548AC
:1020400000F015FB00F0200090B10521D14800F010
:1020500011FB0120D1490870CF480078012807D131
:102060000020CD490870CD490870CD4806F077FEB4
:1020700008F04BF810BD10B500230122C9A1C848D3
:1020800006F066FD10B1CCA008F015FCD3A008F056
:1020900012FC6421C24806F0D6FD0020BE4908703B
:1020A000BE490870BB48D649086000BF142004F040
:1020B000AAFB00BF00BF0120B649086000BFD1489D
:1020C000886000BF0846006A40F030000862084699
:1020D000806C40F03001AF4881644FF00111CA4874
:1020E00001600121C8481038016001208140420987
:1020F000920002F1E022C2F8001100BF10BDF0B55D
:10210000A44CA468C14D2C603C24C14D2C6000BF80
:1021100079B1C04CC04D6C60541E0C44AC600024BE
:10212000EC60541E44F2150545EA0444BA4D2C6097
:102130000CE0B84CB84D6C60B84CAC600024EC605E
:10214000541E152545EA0444B34D2C6080B1541E3D
:102150000444B34D6C60AF4C103CAC600024EC60A8
:10216000541E41F2150545EA0444AD4D2C600DE0C6
:10217000AC4CAB4D6C60A74C103CAC600024EC60E8
:10218000541E152545EA0444A54D2C609F4C246837
:10219000A14F97E86010FF68C4E912C7C4E9105660
:1021A0009A4C2468DFF878C29CE8E0105034A4E828
:1021B000E01041F2385306E0764C246B04F0300412
:1021C00004B902E05B1E002BF6D100BF41B1541EE2
:1021D00044F2150545EA04458B4C083C256006E0B1
:1021E000541E152545EA0445874C083C256040B13E
:1021F000541E41F2150545EA0445834C0834256018
:1022000006E0541E152545EA04457F4C0834256038
:10221000F0BD2DE9FC4105460C462E6C82488349F1
:10222000086083480078002874D101208049087034
:1022300091230A2200217F4800F0FFF99123082210
:1022400000217C4800F0F9F9912309220021794806
:1022500000F0F3F9902303220021764800F0EDF915
:1022600075480021032200F5005353F821304FF048
:10227000010C0CFA02FC43EA0C0300F5005C4CF87C
:10228000213000BF012300F0DEF96078082804DC6B
:1022900008216548FFF75EFE0AE06078102804DC3C
:1022A00010216148FFF756FE02E00820BDE8FC81DE
:1022B000207800F00200022807D1207800F0010009
:1022C00018B130208DF806001BE0207800F00200E5
:1022D00038B9207800F0010018B120208DF80600F0
:1022E0000FE0207800F00200022807D1207800F0EB
:1022F000010018B910208DF8060002E000208DF8CA
:102300000600207800F0040028B1019820F47F40F6
:10231000019006E09FE0019820F47F4000F5807076
:102320000190019820F0FF00401C019001A93E4857
:1023300005F082FA002000F10802012303FA02F1FD
:10234000334A083A126840F6BD738B431A40364B45
:10235000C3F8002400BF00BF01208DF800008DF8F5
:1023600001008DF802008DF803006946184605F05B
:1023700031FB00200146032242EA002242EA0142E8
:10238000244B283B1A6000BF4FF21300214930391B
:10239000086053E0002008403A00000439000004BF
:1023A000C4030004737069315F74785F646F6E6595
:1023B0005F73656D00000000696E69742073706959
:1023C000315F74785F73656D2073656D6170686FE0
:1023D0007265206661696C65640A0000437265611C
:1023E0007420737069315F74785F73656D20616EFE
:1023F0006420696E6974206F6B200D0A0000000074
:102400003400000400080004502408404400000484
:1024100008840840308E0840A40300043B000004F8
:10242000B40300043F00000400800840480000049A
:102430004C0000040010004000C008400C204FF485
:10244000987101EA90018F4AC2F810148E49086011
:1024500000BFFFF710FE8B48616805F091FA074650
:1024600039468AA008F027FA00201FE72DE9F05F1F
:1024700006460C46D6F8409006F14407D9F86C5051
:10248000D6F83CA0D4F80880207C00F0010028B1E8
:10249000002303221946864800F0D5F8A0682028BA
:1024A00012D97878082808DC4FF2130076491439DD
:1024B000086094E80700FFF722FE4FF0FF317D48E7
:1024C00006F0C1FB83466BE0787808283DDC1320DA
:1024D0006D49143908607849206808607749606858
:1024E00008602CE0FF207449096839B17249096815
:1024F000087871490968491C6F4A116000BFD5F816
:10250000041E01F010010029F9D040F48031C5F813
:10251000201E00BFD5F8041E01F040010029F9D0AB
:10252000D5F8301EC8B26549096839B163490968F0
:10253000087062490968491C604A116000BFB8F11F
:102540000000A8F10108CDD12AE07878102827DC16
:10255000206861681EE0FF2208B130F8022B00E01D
:1025600030BFD5F8043E03F01003002BF8D042F43E
:102570008033C5F8203E00E030BFD5F8043E03F0BC
:102580004003002BF8D0D5F8303E9AB209B121F8BB
:10259000022B00BFB8F10002A8F10108DBD100BF97
:1025A000207CC0F3400028B10123032200214048D1
:1025B00000F049F8A068BDE8F09F2DE9F04106461B
:1025C0000C4617462F4886421AD1E0664FF4CD726A
:1025D0003BA140A008F06FF9304605F00DF9054623
:1025E00005B19CBE00BF01203F49096840F6BD729D
:1025F00011400143234AC2F8001400BF00BF02E0AB
:102600000620BDE8F081394A394620460AF042FFEB
:10261000F7E710B526483649086000200871032006
:10262000886034A235491748FFF7C7FF304B31A205
:1026300033A135480AF047FF10BD10B500EBC114B7
:1026400044F8223010BD10B500EB4114A35410BD66
:1026500001228A400262704701228A4082627047EA
:102660000146886B704701228A4002647047014628
:10267000886D704701228A408265704701228A4036
:102680008267704700800840148E08402D2D2D2D44
:102690002D2D2D2D2D2D73706920636C6F636B2094
:1026A0002564202D2D2D2D2D2D2D2D2D2D0D0A00A8
:1026B00000C00840C403000450000004540000049B
:1026C000647269766572735C6472765F7370692E8A
:1026D00063000000496E697420535049202573201F
:1026E00025730D0A00000000008408402C0000043F
:1026F00074040004737069310000000004040004D5
:102700007370693130000000800400042DE9E0435B
:10271000804689461546A07800F0010080B14DA0A2
:1027200008F0C9F84E484F494860681E48814E4835
:10273000086001200881207888730020888119E0D2
:102740004AA008F0B8F84648464948600020488149
:10275000454808600D8120788873002604E0A06851
:10276000805D41498855761C681EB042F7D800202C
:102770003C4988813B49404804F0B6FB3948808990
:1027800030B9384881893DA008F095F8012705E067
:102790003448818944A008F08EF80027A07800F022
:1027A000010060B16A1E2E49A06807F018FDA068FC
:1027B0004278017847A008F07EF82A4847893846D1
:1027C000BDE8E08310B547A008F075F840F2853306
:1027D00001221146474800F036F840F285330222C4
:1027E0000121444800F02FF8234C0321204604F037
:1027F0002DFA142030B1B0F5803F03D8411E3E4A77
:10280000116002E000213C4A116000BF3B491A48B8
:1028100004F090FA00BF38481438006800F01F0038
:1028200040F001001449C1F8000800BF78220021DF
:10283000334807F0B0FC33483149086432A13048CE
:1028400000F066F810BD10B500EBC11444F822305A
:1028500010BD000069326320726420200000000077
:10286000DC040004EC040004CC040004693263209E
:10287000777220200000000000A008402D2D2D2D93
:102880002D2D2D2D2D2D2D2D693263207472756502
:102890002D2D2D2D2D2D2D2D2D2D2D2D2D2D2D2D68
:1028A0002D2025640D0A00002D2D2D2D2D2D2D2DD3
:1028B0002D2D2D2D6932632066616C73652D2D2DB4
:1028C0002D2D2D2D2D2D2D2D2D2D2D2D2D2D20254D
:1028D000640D0A006932632072642025782025780F
:1028E00020000000696E7374616C6C206932633182
:1028F000200D0A000010004014A80840A086010026
:10290000FC040004B8D50100693263310000000006
:1029100070B504460D460026002266A104F1480069
:1029200006F067FAE06E08B96420E06629462046A2
:1029300000F0ACF90646294662A007F0BCFF30461D
:1029400070BD70B50546284605F080FE044614B1FA
:10295000207D082805D0294661A007F0ACFF0020A3
:1029600070BDE66B3046FBE72DE9FF4106460D469C
:102970001746306C0068002848D000242FE004EB94
:10298000440005EB80008068827804EB440005EB8E
:1029900080008068417804EB440005EB800080688B
:1029A000007804EB440305EB83039B88CDE90030FA
:1029B000CDE9021204EB440035F8203004EB44006A
:1029C00005EB8000807800F0010008B1522000E0A3
:1029D00057200246214648A007F06DFF641CBC4208
:1029E000CDD34FF0FF3106F1480006F088FA306C85
:1029F0003A462946036830469847044606F148009F
:102A000006F083FB204604B0BDE8F0814AA007F041
:102A100052FF0020F7E72DE9FE4307460C46154616
:102A20001E46DDF82880ADF8004005F00400ADF842
:102A300002001FFA88F0ADF80400029601226946F0
:102A40003846FFF791FF8146B9F1000F02D04046AA
:102A5000BDE8FE834846FBE72DE9FE4305460E46EA
:102A600017469846DDF8289025B975223B493CA0C9
:102A700007F0FDFFADF8006007F00400ADF80200BC
:102A8000BDF8020040F00100ADF802001FFA89F025
:102A9000ADF80400CDF80880012269462846FFF70A
:102AA00063FF044614B14846BDE8FE832046FBE7B9
:102AB000002070476932635F6275735F6C6F636B90
:102AC0000000000049324320627573205B25735D6E
:102AD00020726567697374657265640A000000009E
:102AE00049324320627573202573206E6F74206510
:102AF000786973740A0000006D7367735B25645D09
:102B00002025632C20616464723D30782530327852
:102B10002C206C656E3D2564205265672025782049
:102B2000446174613120257820446174613220252C
:102B300078200D0A0000000049324320627573209E
:102B40006F7065726174696F6E206E6F742073753B
:102B500070706F727465640A00000000C4D50100D3
:102B600062757320213D2052545F4E554C4C00003D
:102B70002DE9F84F04460D4616461F46D4F83CA0F2
:102B8000BAF1000F04D125224F4950A007F06FFF82
:102B900026B926224C4951A007F069FF3A46214642
:102BA00053A007F088FE1FFA85F84FF6FF7000EA81
:102BB000254933464A46414650460097FFF74CFFA9
:102BC000BDE8F88F2DE9F84F04460D4616461F461E
:102BD000D4F83CA0BAF1000F04D139224D493BA0F2
:102BE00007F045FF26B93A224A493CA007F03FFFCB
:102BF0003A46214648A007F05EFE1FFA85F84FF6D8
:102C0000FF7000EA254933464A4641465046009740
:102C1000FFF701FFBDE8F88F2DE9F04780468946B0
:102C20001446D8F83C5025B94C22434927A007F058
:102C30001EFFB9F1200F09D0B9F1210F0DD0B9F164
:102C4000220F0ED0B9F1230F1CD10DE0B5F84400CE
:102C500040F00400A5F8440015E02088A5F84600DF
:102C600011E02068E8660EE027462846D7E9001202
:102C7000FFF77AFE0646002E03DA6FF00700BDE884
:102C8000F08700E000BF00BF0020F8E770B5044601
:102C90000E4624B96D2229490CA007F0E8FE25460E
:102CA000EC630820287500206862A862E862244866
:102CB0002863244868632448A863032231462846D1
:102CC00005F0EAFC002070BDD7D5010062757320C5
:102CD000213D2052545F4E554C4C00006275666693
:102CE000657220213D2052545F4E554C4C0000002F
:102CF0004932432062757320646576205B25735DDD
:102D00002072656164696E6720257520627974653B
:102D1000732E0A00EBD501004932432062757320FF
:102D20006465762077726974696E67202575206204
:102D3000797465732E0A000000D6010017D60100D1
:102D4000712B0000C52B0000192C000070B5044643
:102D5000216C01F144004FF0FF3106F0D0F8054638
:102D600075B9206C806EA0420AD0206C006C04F112
:102D7000440102682046904705460DB9206C8466E0
:102D8000284670BD10B586B0044600200190029020
:102D90000390059820F00100401C0590059820F054
:102DA00002000590206C006C01A942682046904703
:102DB00006B010BD10B586B0044600200190029008
:102DC0000390059820F001000590059820F002007E
:102DD000801C0590206C006C01A942682046904739
:102DE00006B010BD2DE9F04104460F46E51905F087
:102DF000FCFB06464FF00008A54207D3AE4202D3C3
:102E00004FF001080BE04FF0000808E0A64204D2A2
:102E1000AE4202D34FF0010801E04FF000084046F7
:102E2000BDE8F081F0B502460B460020002126E007
:102E3000555C00241DE0C0F38016C5F3C01786EA78
:102E4000070CBCF1000F08D080F004004FEA406C82
:102E50004FEA1C6040F0010003E04FEA406C4FEA8B
:102E60001C6004F1010C0CF0FF044FEA456C4FEAC2
:102E70001C65082CDFDB01F1010C0CF0FF0199420D
:102E8000D6DBF0BD70B588B0044605F0AEFB054654
:102E9000FF20029002A8039001A804900120059051
:102EA000079820F00200410861F30000079022E03B
:102EB000206C006C03A94268204690479DF80400EE
:102EC000FF2802D1002008B070BD4FF47A7005F0E1
:102ED000AFFB064631462846FFF784FF58B105F0A0
:102EE00084FB06463146F5A007F0E5FCF6A007F0A6
:102EF000E2FC0220E7E7DBE72DE9F04F8BB0044668
:102F00008A4615461F46DDE91468FF208DF810003B
:102F10004AF040008DF81100280E8DF81200280CA0
:102F20008DF81300280A8DF81400E8B28DF815000A
:102F30004FB905210DF11100FFF774FF074601207D
:102F400000EB4700C7B28DF81670FF208DF8170010
:102F500004A8069002A80790082008900A9820F07C
:102F60000200410861F300000A902046FFF78AFF43
:102F7000206C006C06A94268204690474FF001097A
:102F80001CE0FF20019001A80690CDF81C800120D4
:102F900008900A9820F00200410861F300000A90AE
:102FA000206C006C06A942682046904798F8000003
:102FB00000F0800000B904E009F10109B9F1090F3E
:102FC000DFD300BFB9F1090F03D101200BB0BDE879
:102FD000F08F012E01D10020F8E7022E29D105F053
:102FE00004FB834624E00020069001A807900120FE
:102FF00008900A9820F00200410861F300000A904E
:10300000206C006C06A94268204690479DF8040099
:10301000FF2801D10020D9E74FF4FA6005F008FB42
:10302000014600905846FFF7DDFE08B10220CDE7CB
:10303000D9E7032E14D10020069008F10100079073
:10304000012008900A9820F00200410861F3000076
:103050000A90206C006C06A94268204690471AE04E
:10306000042E01D0072E14D10020069008F1010093
:103070000790042008900A9820F00200410861F3AC
:1030800000000A90206C006C06A942682046904718
:1030900001E001209AE7002098E7F0B587B00446E8
:1030A0000D4605F0A2FA0646FF20019001A8029005
:1030B000CDF80CD001200490069820F002004108C1
:1030C00061F30000069022E0206C006C02A94268C7
:1030D000204690479DF80000A84202D1002007B08A
:1030E000F0BD4FF4487005F0A3FA07463946304664
:1030F000FFF778FE58B105F078FA074639466FA019
:1031000007F0D9FB77A007F0D6FB0220E7E7DBE763
:10311000F0B587B004460D461646FE212046FFF75F
:10312000BCFF074617B1384607B0F0BD002002903B
:1031300003950496069820F00200410861F3000010
:103140000690206C006C02A942682046904700203F
:10315000029001A8039002200490069820F002003B
:10316000410861F300000690206C006C02A94268DF
:10317000204690470020D7E72DE9F0438BB0044666
:103180000D4616461F461022FF2102A807F003F83D
:103190008DF8177002A80690002007901020089064
:1031A0000A9820F00200410861F300000A90206CA8
:1031B000006C06A9426820469047069500200790BB
:1031C00008960A9820F00200410861F300000A9076
:1031D000206C006C06A942682046904702A8069021
:1031E00001A80790032008900A9820F002004108E7
:1031F00061F300000A90206C006C06A9426820462A
:1032000090479DF8060000F01F08B8F1050F0ED09A
:1032100005F0EBF98146494628A007F04CFB4146F2
:103220003AA007F048FB01200BB0BDE8F083204630
:10323000FFF728FEF8E72DE9F04F8DB0804689466C
:1032400092461E464446E06CFFF780FD054655B1A8
:1032500005F0CBF90746394618A007F02CFB38A03B
:1032600007F029FB40E108208DF8250004208DF8A7
:103270002400606D0A9009A9E06C0AF049F9012E5A
:103280006CD1E06CFFF77EFD0BA80121CDE90010A9
:10329000616C01FB09F200231821E06CFFF72CFEA2
:1032A000054615B99DF82C0038B105F09EF9074682
:1032B000394602A007F0FFFA51E055E05B4D534458
:1032C0005D202564200000005B6572725D207761DF
:1032D00069742072656164792074696D656F7574B5
:1032E000210D0A005B6572725D207761697420644C
:1032F00061746120737461727420746F6B656E20E9
:1033000074696D656F7574210D0A00005B657272DA
:103310005D20777269746520626C6F636B206661F3
:10332000696C21206461746120726573706F6E73C3
:1033300065203A203078253032580D0A0000000010
:103340005B6572725D2067657420535049206F770A
:103350006E6572206661696C210D0A001BE0FAA09F
:1033600007F0A9FA0026BFE0FE235146626CE06C2C
:10337000FFF702FF0546002D0CD005F036F9074691
:103380003946AFF2C80007F096FA4946F6A007F0B2
:1033900092FA0026A7E0012EFCD9E06CFFF7F2FCC0
:1033A00094F85000012837D00BA80121CDE9001076
:1033B00000231A463721E06CFFF79EFD054615B93C
:1033C0009DF82C0060B105F010F983465946AFF224
:1033D000141007F070FAEEA007F06DFA002683E0F3
:1033E0000BA80121CDE90010002332461721E06C23
:1033F000FFF782FD054615B99DF82C0060B105F078
:10340000F4F883465946AFF24C1007F054FAE7A09F
:1034100007F051FA002667E00BA80121CDE9001062
:10342000616C01FB09F200231921E06CFFF764FDD8
:10343000054615B99DF82C0060B105F0D6F8834615
:103440005946AFF2881007F036FAE2A007F033FAD7
:10345000002649E0002717E0626C02FB07A1FC236D
:10346000E06CFFF789FE05466DB105F0BEF88346B6
:103470005946AFF2B81007F01EFA4946BAA007F055
:103480001AFA3E4602E07F1CB742E5D300BF122283
:10349000FF2101A806F07FFEFD208DF8150001A890
:1034A000069000200790122008900A9820F0020051
:1034B000410861F300000A90E06C016C096C4A68F5
:1034C00006A99047E06CFFF7DDFC054655B105F015
:1034D0008CF883465946AFF21C2007F0ECF9C7A0E0
:1034E00007F0E9F900BF00BFE06CFFF763FCE16C97
:1034F000096C01F1440005F008FE30460DB0BDE84E
:10350000F08F2DE9FF5F8046894692461E4644466D
:103510000025E06CFFF71AFC054605B192E0012E8C
:1035200037D1E06CFFF72EFC02A80121CDE9001095
:10353000616C01FB09F200231121E06CFFF7DCFC58
:10354000054615B99DF8080068B105F04EF8074624
:103550003946AFF2982007F0AEF94946B7A007F018
:10356000AAF900266EE05146626CE06CFFF7D0FDD0
:103570000546002D65D005F038F807463946AFF20C
:10358000C42007F098F94946ACA007F094F900264A
:1035900057E0012E55D9E06CFFF7F4FB02A801219A
:1035A000CDE90010616C01FB09F200231221E06CEF
:1035B000FFF7A2FC054615B99DF8080068B105F0B3
:1035C00014F883465946AFF20C3007F074F94946B7
:1035D000A3A007F070F9002634E0002716E0626C23
:1035E00002FB07A1E06CFFF793FD05466DB104F007
:1035F000FCFF83465946AFF23C3007F05CF9494680
:1036000097A007F058F93E4602E07F1CB742E6D388
:1036100000BF02A80221CDE9001000231A460C21A8
:10362000E06CFFF769FC054655B104F0DEFF834608
:103630005946AFF2783007F03EF994A007F03BF915
:1036400000BF00BFE06CFFF7B5FBE16C096C01F156
:10365000440005F05AFD304604B0BDE8F09F2DE966
:10366000F04F8DB080468A4691461E464446E06C37
:10367000FFF76CFB054605B1A9E108208DF8250090
:1036800004208DF82400606D0A9009A9E06C09F00F
:103690003FFF012E35D1E06CFFF774FB0BA8012131
:1036A000CDE90010002352461821E06CFFF724FCFE
:1036B000054615B99DF82C0060B104F096FF074649
:1036C0003946AFF2084007F0F6F81FA007F0F3F80C
:1036D00000267CE1FE234946626CE06CFFF74CFD5E
:1036E0000546002D0CD004F080FF07463946AFF2A6
:1036F000344007F0E0F851461BA007F0DCF8002644
:1037000064E1012EFCD9E06CFFF73CFB0BA8012122
:10371000CDE9001000231A463721E06CFFF7ECFBDF
:10372000054615B99DF82C0060B104F05EFF834694
:103730005946AFF2784007F0BEF815A007F0BBF885
:10374000002644E1BEE000005B6572725D20434DDF
:10375000442057524954455F424C4F434B206661C9
:10376000696C210D0A0000005B6572725D20777242
:103770006974652053494E474C455F424C4F434B5B
:1037800020232564206661696C210D0A0000000079
:103790005B6572725D20434D443535204150505F6A
:1037A000434D44206661696C210D0A005B657272AD
:1037B0005D2041434D443233205345545F424C4FCA
:1037C000434B5F434F554E54206661696C210D0A8F
:1037D000000000005B6572725D20434D442057522B
:1037E0004954455F4D554C5449504C455F424C4FF0
:1037F000434B206661696C210D0A00005B776172A2
:103800006E696E675D20776169742057524954452F
:103810005F4D554C5449504C455F424C4F434B20F3
:1038200073746F7020746F6B656E2072656164795C
:103830002074696D656F7574210D0A005B65727285
:103840005D20726561642053494E474C455F424C90
:103850004F434B20232564206661696C210D0A00CB
:103860005B6572725D207265616420524541445F00
:103870004D554C5449504C455F424C4F434B2023CF
:103880002564206661696C210D0A00005B65727217
:103890005D207265616420524541445F4D554C5432
:1038A00049504C455F424C4F434B2C2073656E642E
:1038B0002073746F7020746F6B656E206661696C25
:1038C000210D0A000BA80121CDE90010002332468A
:1038D0001721E06CFFF710FB054615B99DF82C0089
:1038E00068B104F082FE83465946AFF2306006F0BC
:1038F000E2FFAFF2481006F0DEFF002667E00BA8FB
:103900000121CDE90010002352461921E06CFFF798
:10391000F3FA054615B99DF82C0068B104F065FE70
:1039200083465946AFF26C6006F0C5FFAFF25C10FB
:1039300006F0C1FF00264AE0002717E0626C02FB98
:103940000791FC23E06CFFF717FC05466DB104F00E
:103950004CFE83465946AFF29C6006F0ACFF5146E0
:10396000FAA006F0A8FF3E4602E07F1CB742E5D36E
:1039700000BF1222FF2101A806F00DFCFD208DF8EA
:10398000150001A8069000200790122008900A98C0
:1039900020F00200410861F300000A90E06C016C25
:1039A000096C4A6806A99047E06CFFF76BFA054678
:1039B0005DB104F01AFE83465946AFF2007006F07E
:1039C0007AFFAFF2C81006F076FF00BF00BFE06CD0
:1039D000FFF7F0F9E16C096C01F1440005F095FB8B
:1039E00030460DB0BDE8F08F2DE9FF5F80468A4676
:1039F00091461E4644460025E06CFFF7A7F90546B0
:103A000005B193E0012E37D1E06CFFF7BBF902A8B6
:103A10000121CDE90010002352461121E06CFFF78F
:103A20006BFA054615B99DF8080070B104F0DDFD8C
:103A300007463946AFF27C7006F03DFF5146AFF2C3
:103A4000042006F038FF002670E04946626CE06C06
:103A5000FFF75EFB0546002D67D004F0C6FD074664
:103A60003946AFF2A87006F026FF5146AFF2342077
:103A700006F021FF002658E0012E56D9E06CFFF732
:103A800081F902A80121CDE900100023524612213C
:103A9000E06CFFF731FA054615B99DF8080070B1E2
:103AA00004F0A3FD83465946AFF2F07006F003FF21
:103AB0005146AFF2542006F0FEFE002636E0002705
:103AC00017E0626C02FB0791E06CFFF721FB0546F3
:103AD00075B104F08AFD83465946AFF6200006F022
:103AE000EAFE5146AFF2882006F0E5FE3E4602E0CF
:103AF0007F1CB742E5D300BF02A80221CDE9001028
:103B000000231A460C21E06CFFF7F6F905465DB17B
:103B100004F06BFD83465946AFF6600006F0CBFE1D
:103B2000AFF2982006F0C7FE00BF00BFE06CFFF7C1
:103B300041F9E16C096C01F1440005F0E6FA304608
:103B400004B0BDE8F09F01B5AAB02A9829900020E2
:103B500026902998C06C68B904F047FD014623906F
:103B6000AFF6A80006F0A7FE82A006F0A4FE08208B
:103B70002BB000BD08208DF8890004208DF8880046
:103B8000864823902998C06C22A9219009F0C0FC96
:103B90002998C06C1E90FFF7D9F82690269808B196
:103BA00001F0A3BB2998C06C1E90FFF703F9FF2218
:103BB000642106A819F0DDF906A81F9000202090C6
:103BC00064202190239820F00200410861F3000056
:103BD00023902998C06C0590FFF7D4F82998C06C01
:103BE00005902998C06C006C006C40681FA9049077
:103BF000DDE9042090472998C06C0590FFF7DAF8BA
:103C000004F0F3FC259035E02998C06C1E90FFF776
:103C1000B9F827A80121CDE900102998C06C952397
:103C2000002211461E90FFF767F926902998C06C74
:103C30001E90FFF7BFF8269820B99DF89C00012838
:103C400000D118E040F6B83004F0F2FC01461E90B6
:103C50002598FFF7C7F868B104F0C7FC01461E902D
:103C6000AFF6A81006F027FE4DA006F024FE0220B5
:103C7000269095E7C8E700BF04F0B7FC01461E9008
:103C8000AFF6C81006F017FE4FA006F014FE04F0C1
:103C9000ACFC259000BF2998C06C1E90FFF772F80D
:103CA00027A80721CDE900102998C06C87234FF47D
:103CB000D57208211E90FFF71FF926902998C06C35
:103CC0001E90FFF777F8269800283DD104F08DFC70
:103CD00001461E90AFF61C2006F0EDFD9DF8A000F9
:103CE0009DF89F10CDE900109DF89E001E909DF854
:103CF0009D001D909DF89C001C9001463BA0DDE9B5
:103D00001D2306F0D8FD9DF89C0000F0040000285B
:103D10001BD004F06AFC01461E90AFF6602006F04E
:103D2000CAFD41A006F0C7FD04F05FFC01461E90ED
:103D3000AFF6782006F0BFFD44A006F0BCFD0221DE
:103D4000299880F85010DBE0BEE099E05B65727264
:103D50005D207772697465204D554C5449504C452F
:103D60005F424C4F434B20232564206661696C21E0
:103D70000D0A00005B6572725D2074686520535007
:103D80004920534420646576696365206861732027
:103D90006E6F20535049210D0A000000801A060062
:103DA0005B6572725D205344206361726420676FAB
:103DB000746F2049444C45206D6F64652074696DB3
:103DC000656F7574210D0A005B696E666F5D205327
:103DD00044206361726420676F746F2049444C45CE
:103DE000206D6F6465204F4B210D0A005B696E6684
:103DF0006F5D20434D443820726573706F6E73653C
:103E0000203A20307825303258203078253032580A
:103E10002030782530325820307825303258203004
:103E200078253032580D0A005B696E666F5D20435D
:103E30004D443820697320696C6C6567616C206340
:103E40006F6D6D616E642E0D0A0000005B696E6619
:103E50006F5D206D6179626520566572312E582044
:103E60005344204D656D6F72792043617264206FF9
:103E700072204D4D432063617264210D0A000000E1
:103E800004F0B3FB01461E90AFF6D03006F013FDF0
:103E9000FAA006F010FD0321299880F850109DF833
:103EA000A000AA2827D19DF89F0020BB04F09DFB0D
:103EB00001461E90AFF6FC3006F0FDFCFD4806F012
:103EC000FAFC012026906BE6C82004F0B1FB014605
:103ED0001E902598FEF786FF68B104F086FB014628
:103EE0001E90AFF6284006F0E6FCF3A006F0E3FCD7
:103EF0000220269054E69DF8A000AA287FF4CBAEBD
:103F000000BF299890F85000022870D100201E9020
:103F100008E12998C06C1C90FEF734FF27A9042003
:103F2000CDE900012998C06C00231A463A211C9063
:103F3000FEF7E2FF2690269880B12998C06C1C906D
:103F4000FEF738FF04F051FB01461C90AFF6944099
:103F500006F0B1FCE1A006F0AEFC21E69DF89C0065
:103F600000F0FE0080B12998C06C1C90FEF722FF83
:103F700004F03BFB01461C90AFF6C04006F09BFCF2
:103F8000E6A006F098FCCEE02998C06C1C90FEF7E5
:103F900011FF9DF89D0024909DF89E10249801EB40
:103FA000002024909DF89F10249801EB002024907D
:103FB0009DF8A010249801EB0020249004F015FB3C
:103FC00001461C90AFF60C5006F075FCE3A0249956
:103FD00006F071FC249800F4004078B904F005FB69
:103FE00001461C90AFF62C5006F065FC00E063E241
:103FF000E0A006F060FC01202690D1E504F0F5FA7F
:104000001D908CE04FF4487004F012FB01461C90A8
:104010001D98FEF7E7FE80B12998C06C1C90FEF752
:10402000C9FE04F0E2FA01461C90AFF6705006F0AB
:1040300042FCDCA006F03FFC72E02998C06C1C90AA
:10404000FEF7A0FE27A80121CDE900102998C06C39
:1040500000231A4637211C90FEF74EFF2690269823
:1040600028B12998C06C1C90FEF7A4FE57E09DF87B
:104070009C0000F0FE0080B12998C06C1C90FEF7F7
:1040800099FE04F0B2FA01461C90AFF6D05006F04B
:1040900012FCD2A006F00FFC42E027A80121CDE9D6
:1040A00000102998C06C00231A4629211C90FEF7A5
:1040B00023FF2690269828B12998C06C1C90FEF703
:1040C00079FE2CE09DF89C0000F0FE0080B129985C
:1040D000C06C1C90FEF76EFE04F087FA01461C903F
:1040E000AFF6286006F0E7FBC5A006F0E4FB17E09A
:1040F0009DF89C0090B92998C06C1C90FEF75AFE60
:1041000001201E9004F071FA01461C90AFF6546035
:1041100006F0D1FBC3A006F0CEFB01E000BF71E7C3
:1041200000BF00E0F5E600BF1E98012872D004F041
:104130005CFA01461B90AFF67C6006F0BCFBC3A0A6
:1041400006F0B9FB2998C06C1B90FEF733FEFF22E6
:10415000642103A818F00DFF03A81F9000202090F1
:1041600064202190239820F00200410861F30000B0
:10417000239000201C900FE02998C06C0290299891
:10418000C06C006C006C40681FA90190DDE9012043
:1041900090471C98401C1C901C980A28ECD304F0F3
:1041A00024FA1D9037E02998C06C1B90FEF7EAFDB9
:1041B00027A90120CDE900012998C06C9523002290
:1041C00011461B90FEF798FE26902998C06C1B9014
:1041D000FEF7F0FD269820B99DF89C00012800D13B
:1041E0001AE040F6B83004F023FA01461B901D98FF
:1041F000FEF7F8FD78B104F0F8F901461B90AFF630
:10420000447006F058FBAFF2684006F054FB022001
:104210002690C5E44FE1C6E700BF04F0E6F91D9023
:1042200046E12998C06C1B90FEF7ACFD27A8012140
:10423000CDE900102998C06C00231A461B90FEF7A8
:104240005BFE26902998C06C1B90FEF7B3FD269864
:1042500090B99DF89C0078B904F0C7F901461B900D
:10426000AFF6A87006F027FB7EA006F024FB012124
:10427000299880F850101CE102E100005B696E662D
:104280006F5D20566572322E3030206F72206C6167
:10429000746572206F722053444843206F7220531C
:1042A000445843206D656D6F72792063617264219B
:1042B0000D0A0000A41C02005B6572725D20434D74
:1042C00044382053454E445F49465F434F4E442097
:1042D00074696D656F7574210D0A00005B696E6607
:1042E0006F5D204974206D61796265205344312EE1
:1042F00078206F72204D4D432042757420697420E0
:104300006973204E6F7420726573706F6E736520D1
:10431000746F20434D443538210D0A005B696E6689
:104320006F5D204974206C6F6F6B20434D443538AE
:1043300020617320696C6C6567616C20636F6D6DC3
:10434000616E6420736F206974206973206E6F74CE
:104350002053442063617264210D0A005B696E661C
:104360006F5D204F435220697320307825303858D4
:104370000D0A00005B6572725D20534420312E7877
:1043800020427574206E6F742073757270706F7236
:10439000742063757272656E7420766F6C746167D9
:1043A000650D0A005B696E666F5D2074727920434B
:1043B0004D443535202B2041434D44343120746920
:1043C0006D656F757421206D61626579204D4D4377
:1043D0002063617264210D0A000000005B696E6653
:1043E0006F5D204E6F7420534420636172643220ED
:1043F0002C206D6179206265204D4D430D0A00002F
:104400005B696E666F5D204E6F742053442063615C
:10441000726434202C206D6179206265204D4D43FB
:104420000D0A00005B696E666F5D20497420697338
:1044300020566572312E58205344204D656D6F72A1
:104440007920436172642121210D0A005B696E6647
:104450006F5D20747279204D4D4320636172642139
:104460000D0A00005B696E666F5D204974206973F8
:10447000204D4D4320636172642121210D0A00000B
:1044800040F6B83004F0D4F801461B901D98FEF7B2
:10449000A9FC68B104F0A9F801461B90FE4806F09B
:1044A0000AFAAFF2047006F006FA022026900AE536
:1044B000B7E600BF00BF98E1299890F850000328A4
:1044C00072D12998C06C1E90FEF75CFC27A80421CD
:1044D000CDE900102998C06C00231A463A211E909D
:1044E000FEF70AFD2690269878B12998C06C1E9098
:1044F000FEF760FC04F079F801461E90E64806F0ED
:10450000DAF9E6A006F0D7F9DDE49DF89C0000F0AA
:10451000FE0088B12998C06C1E90FEF74BFC04F099
:1045200064F801461E90DC4806F0C5F9E9A006F0E3
:10453000C2F901202690C6E42998C06C1E90FEF7AF
:1045400039FC9DF89D0024909DF89E10249801EB65
:10455000002024909DF89F10249801EB00202490C7
:104560009DF8A010249801EB0020249004F03DF861
:1045700001461E90C84806F09EF9AFF2202024990B
:1045800006F099F9249800F4004070B904F02DF871
:1045900001461E90C04806F08EF9AFF2282006F0C2
:1045A0008AF9012026908EE412E104F01EF825908D
:1045B00000BF2998C06C1E90FEF7E4FB4FF44870D2
:1045C00004F036F801461E902598FEF70BFC88B1E2
:1045D0002998C06C1E90FEF7EDFB04F006F801462A
:1045E0001E90AD4806F067F9CAA006F064F90120F4
:1045F000269068E427A80121CDE900102998C06C15
:104600006523002237211E90FEF776FC269026981F
:1046100028B12998C06C1E90FEF7CCFB50E09DF8A5
:104620009C0000F0FE0088B12998C06C1E90FEF737
:10463000C1FB03F0DAFF01461E90974806F03BF9F4
:10464000C2A006F038F9012026903CE427A80121F9
:10465000CDE900102998C06C77238A0729211E9084
:10466000FEF74AFC2690269888B12998C06C1E90C7
:10467000FEF7A0FB03F0B9FF01461E90864806F046
:104680001AF9B8A006F017F9012026901BE49DF84E
:104690009C0000F0FE0090B12998C06C1E90FEF7BF
:1046A00089FB03F0A2FF01461E907B4806F003F948
:1046B0009DF89C0001461E90B0A006F0FCF800BFDB
:1046C0009DF89C0000287FF474AF2998C06C1E9060
:1046D000FEF770FB2998C06C1E90FEF753FB27A8CD
:1046E0000421CDE900102998C06C00231A463A2114
:1046F0001E90FEF701FC2690269878B12998C06C90
:104700001E90FEF757FB03F070FF01461E906248B3
:1047100006F0D1F8A4A006F0CEF81EE49DF89C00A7
:1047200000F0FE0088B12998C06C1E90FEF742FB95
:1047300003F05BFF01461E90574806F0BCF8A948FD
:1047400006F0B9F80120269007E42998C06C1E9065
:10475000FEF730FB9DF89D0024909DF89E10249854
:1047600001EB002024909DF89F10249801EB00207D
:1047700024909DF8A010249801EB0020249003F0D1
:1047800034FF01461E90444806F095F896A02499FF
:1047900006F091F8249800F0804070B103F025FFF6
:1047A00001461E903C4806F086F897A006F083F874
:1047B0000421299880F8501017E003F016FF0146F5
:1047C0001E90354806F077F898A006F074F80CE0D3
:1047D00003F00BFF01461E902F4806F06CF89FA0D7
:1047E00006F069F80120269007E4299890F8500017
:1047F000042806D1A1492A980163A1492A98416356
:1048000005E0A0492A9801639F492A9841632998A5
:10481000C06C2390FEF7CEFA2998C06C2390FEF767
:10482000B1FA27A80121CDE900102998C06C912385
:1048300000223B212390FEF75FFB26902998C06C55
:104840002390FEF7B7FA269810B99DF89C0080B126
:1048500003F0CBFE014623900F4806F02CF89DF89C
:104860009C000146239089A006F025F8012026909F
:10487000CFE42998C06C2390FEF79CFA2998C06C6D
:104880002390FEF77FFA27A80121CDE9001029988F
:10489000C06C00234A0213E1BC3200005B657272F7
:1048A0005D204974206D61796265205344322E3059
:1048B00020427574206974206973204E6F742072D1
:1048C0006573706F6E736520746F20434D44353887
:1048D000210D0A005B6572725D204974206C6F6F58
:1048E0006B20434D44353820617320696C6C6567DB
:1048F000616C20636F6D6D616E6420736F206974ED
:10490000206973206E6F74205344206361726421A8
:104910000D0A00005B6572725D205344205665727B
:10492000322E78206F72206C6174657220747279F7
:1049300020434D443535202B2041434D4434312014
:1049400074696D656F7574210D0A00005B65727284
:104950005D204E6F74205344207265616479210D8F
:104960000A0000005B6572725D2041434D443431A2
:10497000206661696C210D0A000000005B696E66AB
:104980006F5D204E6F742053442063617264342045
:104990002C20726573706F6E7365203A2030782515
:1049A0003032580D0A0000005B6572725D20497458
:1049B000206D61796265205344322E302042757437
:1049C000206974206973204E6F7420726573706F54
:1049D0006E736520746F20326E6420434D44353809
:1049E000210D0A00601C02005B696E666F5D204F3E
:1049F000435220326E6420726561642069732030F6
:104A000078253038580D0A005B696E666F5D204965
:104A100074206973205344322E302053444843207D
:104A2000436172642121210D0A0000005B696E66FA
:104A30006F5D204974206973205344322E302073F7
:104A400074616E646172642063617061636974791A
:104A500020436172642121210D0A00005B6572729E
:104A60005D20534420636172642074797065207501
:104A70006E6B6F6E77210D0A00000000E9390000AF
:104A80005F36000003350000373200005B6572724C
:104A90005D20434D443539204352435F4F4E5F4FB5
:104AA0004646206661696C2120726573706F6E7373
:104AB00065203A203078253032580D0A0000000079
:104AC00010212390FEF718FA26902998C06C2390A5
:104AD000FEF770F9269810B99DF89C0080B103F09C
:104AE00084FD01462390FE4805F0E5FE9DF89C00FC
:104AF00001462390FBA005F0DEFE01202690F4E3A2
:104B00004FF4007129988164299841642998C06CF8
:104B10001F90FEF737F927A80121CDE90010299849
:104B2000C06C00231A4609211F90FEF7E5F9269074
:104B3000269878B12998C06C1F90FEF73BF903F0D6
:104B400054FD01461F90E64805F0B5FEF2A005F0C1
:104B5000B2FECAE3269810B99DF89C00A8B1299826
:104B6000C06C1F90FEF726F903F03FFD01461F9031
:104B7000DB4805F0A0FE9DF89C0001461F90EEA0CA
:104B800005F099FE01202690AFE32998C06C102211
:104B900020A91F90FEF7BCFA26902998C06C1F90A0
:104BA000FEF708F9269850B103F01FFD01461F904B
:104BB000CB4805F080FEECA005F07DFE95E39DF866
:104BC000800000F0C0001C901C9880111F90299854
:104BD00090F8500001286FD11F9802280DDD03F0D6
:104BE00004FD01461790BE4805F065FEE4A01F993C
:104BF00005F061FE0120269077E31F9850B903F07D
:104C0000F4FC01461790B64805F055FEE4A005F007
:104C100052FE1AE01F9801280AD103F0E6FC014673
:104C20001790AF4805F047FEE5A005F044FE0CE004
:104C30001F98022809D103F0D8FC01461790A84814
:104C400005F039FEE6A005F036FE9DF883001C90C5
:104C50001C9800F003001C901C9818B9E84929988A
:104C6000416513E01C98012803D1E6492998416564
:104C70000CE01C98022803D1E3492998416505E01E
:104C80001C98032802D1E149299841651C98A0B9D4
:104C900003F0ABFC01461790914805F00CFE2998F3
:104CA000406D4FF47A71B0FBF1F002461790D8A036
:104CB0001C9905F000FE15E099E003F096FC014612
:104CC0001790874805F0F7FD2998406D4FF47A71E9
:104CD000B0FBF1F0B0FBF1F002461790D6A01C99A2
:104CE00005F0E9FD9DF8850000F00F001C901C9870
:104CF000189003F07AFC01461790794805F0DBFD27
:104D00000121189801FA00F002461790D4A01899D2
:104D100005F0D1FD9DF8860000F003001B904FF6D2
:104D2000FF711B9801EA00201B909DF887101B98CB
:104D300008441B904FF6FF711B9801EA80001B90FE
:104D40009DF8880000F0C0001C901C9880111C90F9
:104D5000DDE91B0108441B901B981E9003F045FCE5
:104D6000014617905E4805F0A6FDC7A01E9905F004
:104D7000A2FD9DF8890000F003001C901C984000E3
:104D80001C909DF88A101C9800EBD1101C901C9868
:104D9000199003F02AFC01461790514805F08BFD4D
:104DA000C0A0199905F087FD012118988140199834
:104DB000801C012282401E98401C424301FB02F0ED
:104DC0001D902998416C1D98B0FBF1F12998016460
:104DD00003F00BFC01461790414805F06CFD1D984F
:104DE000000D01461790B7A005F065FD6DE21F9814
:104DF000002873D103F0F9FB01461790384805F0FD
:104E00005AFDB9A005F057FD9DF883001C901C9831
:104E1000322803D17C492998416509E01C985A2819
:104E200003D1B8492998416502E07649299841653E
:104E300003F0DBFB01461790294805F03CFD29985B
:104E4000406D4FF47A71B0FBF1F0B0FBF1F0024627
:104E5000179079A01C9905F02EFD9DF8850000F0B3
:104E60000F001C901C98189003F0BFFB0146179090
:104E70001B4805F020FD0121189801FA00F00246B8
:104E8000179077A0189905F016FD9DF8860000F0A0
:104E900003001B904FF6FF711B9801EA00201B9046
:104EA0009DF887101B9808441B904FF6FF711B98C4
:104EB00001EA80001B909DF8880000F0C0001C9063
:104EC0001C9880111C90DDE91B0108441B901B9865
:104ED0001E9003F08AFB0146179015E15CE100008B
:104EE000BC3200005B6572725D20434D4431362058
:104EF0005345545F424C4F434B4C454E20666169CD
:104F00006C2120726573706F6E7365203A20307863
:104F1000253032580D0A00005B6572725D20434DEA
:104F200044392053454E445F4353442074696D65B2
:104F30006F7574210D0A00005B6572725D20434D30
:104F400044392053454E445F435344206661696CA5
:104F50002120726573706F6E7365203A203078255A
:104F60003032580D0A0000005B6572725D20726578
:104F7000616420435344206661696C210D0A00007E
:104F80005B6572725D206261642043534420566504
:104F90007273696F6E203A2025640D0A00000000CC
:104FA0005B696E666F5D204353442076657273695A
:104FB0006F6E204E6F2E20312E300D0A0000000043
:104FC0005B696E666F5D204353442076657273693A
:104FD0006F6E204E6F2E20312E310D0A0000000022
:104FE0005B696E666F5D204353442076657273691A
:104FF0006F6E204E6F2E20312E320D0A0000000001
:10500000A086010040420F008096980000E1F5055F
:105010005B696E666F5D205452414E5F535045454B
:10502000443A203078253032582C2025646B626950
:10503000742F732E0D0A00005B696E666F5D20543D
:1050400052414E5F53504545443A20307825303226
:10505000582C2025644D6269742F732E0D0A0000B0
:105060005B696E666F5D20435344203A2052454190
:10507000445F424C5F4C454E203A20256420256415
:10508000627974650D0A00005B696E666F5D20438E
:105090005344203A20435F53495A45203A2025641F
:1050A0000D0A00005B696E666F5D20435344203A31
:1050B00020435F53495A455F4D554C54203A2025B3
:1050C000640D0A005B696E666F5D20636172642027
:1050D0006361706163697479203A202564204D62B0
:1050E0007974650D0A0000005B696E666F5D204390
:1050F00053442056657273696F6E20312E300D0A4D
:105100000000000080F0FA02B34805F0D4FBAFF2D3
:1051100088001E9905F0CFFB9DF8890000F0030080
:105120001C901C9840001C909DF88A101C9800EB65
:10513000D1101C901C98199003F057FA0146179053
:10514000A54805F0B8FBAFF2A400199905F0B3FB30
:105150000121189881401998801C012282401E98D4
:10516000401C424301FB02F01D902998416C1D98A0
:10517000B0FBF1F12998016403F037FA014617906A
:10518000954805F098FB1D98000D01461790AFF269
:10519000CC0005F090FB98E01F9801287ED103F029
:1051A00024FA014619908C4805F085FB8BA005F088
:1051B00082FB9DF883001C901C98322803D18E49F5
:1051C0002998416517E01C985A2803D18B492998E2
:1051D000416510E01C980B2803D189492998416545
:1051E00009E01C982B2803D186492998416502E0E3
:1051F00085492998416503F0F8F9014619907648E8
:1052000005F059FB2998406D4FF47A71B0FBF1F02D
:10521000B0FBF1F002461990AFF2E4101C9905F0D2
:105220004AFB9DF8870000F03F001A901A98000290
:105230001A909DF888101A9808441A901A9800023B
:105240001A909DF889101A9808441A901A981E907E
:1052500003F0CBF9014619905F4805F02CFBAFF243
:10526000D8101E9905F027FB1E98401C40081D9081
:105270001D9881022998016403F0B7F9014619903D
:10528000554805F018FB1D98C0F30901642011FB77
:1052900000F0800A19901D98800A00E006E018903E
:1052A00001465AA0199A05F006FB0EE003F09DF99D
:1052B00001461990484805F0FEFAAFF23C301F99BC
:1052C00005F0F9FA012026900FE008208DF88900FA
:1052D00004208DF888002998406D23902998C06C8F
:1052E00022A9219008F014F900BF2998C06C2390DE
:1052F000FDF760FD2998C06C006C4430239003F0EA
:1053000004FF2698FEF734BC024600207047014691
:10531000002070472DE9F04105460F4616462C4601
:105320002DB940F26562434943A005F0A0FB102F60
:105330000CD1314619B94FF0FF30BDE8F081606CF7
:105340004860A06C8860206C086000BF0020F4E713
:105350002DE9F04104460D460027284603F076F972
:1053600006466EB903F041F9804641461A4805F0F9
:10537000A2FA294634A005F09EFAB81FBDE8F081D4
:1053800058220021374804F006FF3648C664012041
:1053900034490875002133484164002031490864CC
:1053A00000213048816430482E4948622F48886285
:1053B0002F48C8620020086348632E488863002095
:1053C000C863C86108620F222146264803F064F9C9
:1053D00007463846D2E70000BC3200005B696E66C3
:1053E0006F5D204353442056657273696F6E20329F
:1053F0002E300D0A000000008096980080F0FA021E
:1054000000E1F50500C2EB0B40420F005B696E66E0
:105410006F5D206361726420636170616369747998
:10542000203A2025642E25642047627974650D0A90
:105430000000000035D6010064657620213D205231
:10544000545F4E554C4C000073706920646576695A
:105450006365202573206E6F7420666F756E6421FE
:105460000D0A000074050004473B000009530000CA
:105470000F5300001553000010B504F037FE70E024
:10548000F8480068002867D0F7480068001FF7490F
:10549000096888421FD3F648006830B9F5480068AB
:1054A000F24909684058F4490860F1480068012849
:1054B00006D1F2480068ED4909684058EE49086095
:1054C000ED480168EE4800F038FEE8480068001D2D
:1054D000E64908602BE0E648006818B90120E44975
:1054E000086002E00020E24908600120DD49086010
:1054F0000020DE490860DE48006828B9DD48006801
:1055000009684058DC490860D9480068012806D17C
:10551000DA480068D54909684058D7490860D64834
:105520000168D74800F009FE0420D0490860CD4842
:105530000068012815D10220CA490860D1480068D6
:1055400018B90120CF49086002E00020CD49086069
:10555000CD4803F004FC04E0C7480168C84800F0E7
:10556000ECFD00BFC948006800F02000002887D18A
:1055700000BF0320C549086000BF04F0C6FD10BD90
:1055800010B5002404F0B2FD03E000BFC04800687D
:10559000044600BFBE482C38006800F040000028D8
:1055A000F3D100BF0320BA492C39086000BF04F0D2
:1055B000ACFD10BD10B5B7A005F07DF98123052223
:1055C0000021B94800F0B3FD812306220021B6482E
:1055D00000F0ADFD812307220021B34800F0A7FDB4
:1055E00084230C220121B04800F0A1FD84230D2268
:1055F0000121AD4800F09BFD84230E220121AA4821
:1056000000F095FD10BD704710B50446A7A005F049
:1056100052F9AA499A4802F081FE0221072000F0BF
:1056200081FDA649964802F092FEA449944802F0F2
:1056300025FF0522A149924802F0BEFF00229F49A2
:105640008F4802F0B9FF9E499E4802F067FE022192
:10565000062000F067FD9A499A4802F078FE9849C2
:10566000984802F00BFF00229549964802F0A4FFEB
:105670000521834800F064FD0A21924800F060FD96
:1056800010BD7FB505460C468F48C06E20B9D622A6
:105690008E498FA005F0EBF98DF8005020128DF89F
:1056A0000100E0B28DF802001A20ADF804000020DD
:1056B000ADF806000320ADF80800CDF80CD0824903
:1056C0000122C86E01A9FDF74FF97FBD70B50546EF
:1056D0002946864801F008FCA88908B9012403E09E
:1056E00083A005F0E8F80024204670BD70B506469A
:1056F0000C468548854948600220488184480860F6
:10570000012008811A208873814806700020888152
:105710000846FFF7DBFF7D48808940B97A4840782A
:105720007949097840EA01202080012502E0002023
:1057300020800025284670BD70B505460C46392DE1
:1057400006D17448006864F31F40724908601BE08A
:105750003A2D07D16F4800686FF30F0020436D4961
:10576000086011E02C2D06D16B48006864F31F40DF
:105770006949086008E02D2D06D1674800686FF37D
:105780000F002043644908605F486049486000207A
:1057900048815F480860032008811A2088735C48AC
:1057A0000570200A5A4948708C700020574988813A
:1057B0000846FFF78BFF5548808908B9012070BD66
:1057C0000020FCE7F8B505460F4600205349086065
:1057D0000024DAE035F82400FF282AD1BDF80020A3
:1057E00070214FA005F067F800204C49086000BF09
:1057F0004A480068401C49490860322006F0CAFA4D
:1058000069467020FFF772FFBDF80020702144A0A8
:1058100005F051F8BDF8000000F001000028E7D1C4
:105820003E480068322200FB02F145A005F043F833
:10583000AAE000BF05EB8402518815F82400FFF7A9
:105840007BFF064605EB8400428835F8241040A013
:1058500005F031F816B946A005F02DF806B997E025
:1058600092E00000AC000004A00000049C000004D2
:10587000A400000490000004B000000494000004A0
:1058800000800940A80000043C060004048E094082
:10589000307E0940636F6465635F6770696F5F6343
:1058A0006F6E6669670D0A00001000406932732050
:1058B000636F6E6669670D0A0000000058000004FF
:1058C0007000000400700940CC05000404DA0100F7
:1058D000636F6465632E6932635F646576696365CF
:1058E00020213D2052545F4E554C4C0000A00840F2
:1058F000693263207472616E7366657220666169D5
:105900006C65640D0A0000006C0600047C0600044F
:105910005C060004B8000004BC000004C0000004E1
:105920004932432072656769737465723A3078252D
:1059300030327820726561643A25780D0A000000E3
:1059400064656C61793A2025646D730D0A0000006E
:105950004932432072656769737465723A307825FD
:105960003032782077726974653A25780D0A000024
:105970004932432072656769737465722066616994
:105980006C65640D0A000000641CBC42FFF422AF89
:1059900000BFF8BD10B50446F7A004F08CFF00204E
:1059A00010BD70B50446F8480068060CF64800883B
:1059B00085B204F03F0426F03F0625F03F0526435C
:1059C000254331463920FFF7B7FE29463A20FFF735
:1059D000B3FE45F080013A20FFF7AEFE70BD10B572
:1059E0000446E0B2FFF7DDFF10BD38B5002417E034
:1059F000E649085D6946FFF779FE04F0070010B933
:105A0000AFF2980000E0E2A00146E2A004F053FFEC
:105A1000DE48015DBDF80020DFA004F04CFF641CEF
:105A2000622CE5D338BD2DE9F04107460D461646F8
:105A300001244AF64440854206D04BF68030854228
:105A400002D00020BDE8F08100211620FFF774FE8F
:105A50000440052000EB872081B21520FFF76CFE83
:105A600004404FF00308202E06DAA6F11000C117FB
:105A700000EB91714FEAA108022000EB880081B28F
:105A80001920FFF759FE04400E211620FFF754FE9F
:105A900004402046D6E710B50446102221460320D4
:105AA000FFF7C1FF38B12146BEA004F004FFFFF7A5
:105AB0009CFF002010BD2146C2A004F0FCFE4FF068
:105AC000FF30F7E710B504462046FFF7E4FF00205B
:105AD00010BD38B569460020FFF708FE04460CB13A
