:020000040000FA
:10000000582B00042563000069630000E1C500006F
:100010001B0400006F63000071630000000000001B
:1000200000000000000000000000000073630000FA
:1000300075630000000000002FC50000770300007A
:100040007B630000911F00007B6300007B63000066
:100050007B6300007B6300007B6300007B63000028
:100060007B6300007B6300007B6300007B63000018
:100070007B6300007B6300002D1E00007B6300009B
:100080007B6300008F1F00007B6300007B63000028
:10009000855500007D5400007B6300007B630000F9
:1000A0007B6300007B6300007B6300007B630000D8
:1000B0007B6300007B6300007B6300007B630000C8
:1000C0007B6300007B6300007B6300007B630000B8
:1000D0007B6300007B6300007B6300007B630000A8
:1000E00000F002F800F065F80AA090E8000C8244E5
:1000F0008344AAF10107DA4501D100F05AF8AFF2C2
:10010000090EBAE80F0013F0010F18BFFB1A43F0F5
:1001100001031847D8240200F82402000A444FF0D3
:10012000000C10F8013B13F0070408BF10F8014B56
:100130001D1108BF10F8015B641E05D010F8016B9B
:10014000641E01F8016BF9D113F0080F1EBF10F8FF
:10015000014BAD1C0C1B09D16D1E58BF01F801CB22
:10016000FAD505E014F8016B01F8016B6D1EF9D5A5
:100170009142D6D3704700000023002400250026BA
:10018000103A28BF78C1FBD8520728BF30C148BFFA
:100190000B6070471FB51DF0A5F91DF063F9040051
:1001A000002000211DF088F9401C60601FBD10B5C3
:1001B00010BD1DF032F91146FFF7ECFF00F093F887
:1001C0001DF062F903B4FFF7F2FF03BC1DF066F9FE
:1001D00038B5044602200BF0C7FD1CA11DA005F098
:1001E000B9F812F023FD14F085FD002003461AA291
:1001F0001AA1009017A013F0ADFC18B918A00AF0CE
:1002000044FB02E01DA00AF040FB02F053FC02F0A8
:10021000DBFA23A005F0BCFE0EF0ACF900F03CF9CF
:1002200038BD1CB514200A214FF400630022CDE92B
:100230000010AFF263011CA00BF0D6FC044614B111
:1002400020460BF085FC00201CBD00007370693156
:100250003000000073643000656C6D002F000000FA
:1002600046696C652053797374656D20696E697495
:1002700069616C697A6564210A00000046696C65F1
:100280002053797374656D20696E697469616C7A45
:100290006174696F6E206661696C6564210A000093
:1002A0006932633100000000696E6974000000006B
:1002B00010B500F068F80AF018FB08F07FF90BF0B1
:1002C0009CF80CF00BF80B494FF000500AF098FC2A
:1002D0000BF00EFAFFF7A5FF0CF00CF808F08CFB02
:1002E0000BF022FA10BD10B50CF00AF9FFF7E0FF91
:1002F000002010BD0080022070470000FFFFFFFFBC
:1003000010B5002807DA4A07140E474A00F00F0319
:100310001B1FD45403E04A07130E444A135410BD64
:1003200010B501460846802808D200F01F030122BC
:100330009A403F4B440943F8242005E0A0F1800295
:10034000012393403B4A536000BF00BF00BF00BF82
:10035000802809D200F01F0301229A40344B203339
:10036000440943F8242005E0A0F1800201239340D2
:10037000304A936010BD10B509F0A2FE08F02DF9C7
:1003800009F0ADFE10BD10B50020274910390860F6
:1003900006F03CF9284800686421B0FBF1F4601EC7
:1003A000B0F1807F00D30FE0601E4FF0E021486184
:1003B00007214FF0FF30FFF7A3FF00204FF0E021AF
:1003C00088610720086100BF07216FF00100FFF777
:1003D00097FF0B2006F00FFA0D2006F00CFA00BF75
:1003E0000E2006F008FA0F2006F005FA0E20FFF79F
:1003F00097FF0F20FFF794FF00BF01F02FFD0FA024
:100400000AF0B8FA02F006F910BD10B50D494FF028
:1004100000500AF0F5FB002010BD10B50AA00AF04C
:1004200034FA0CF0DDF810BD18ED00E000E400E057
:100430002001004000000440D00000047561727487
:1004400030000000008002204D656D6F72792046FB
:1004500061756C74210A00000DE00121022001F099
:10046000F4FA64200BF080FC0021022001F0EDFA88
:1004700064200BF079FCF0E70DE00121084601F063
:10048000E4FA64200BF070FC0021012001F0DDFA99
:1004900064200BF069FCF0E770B50024002501F042
:1004A000B6FA002070BD000002460020704710B56B
:1004B000044624B93222FD49FDA00AF0C2FA002008
:1004C0002063A063E0632062FE480068E062E06AA7
:1004D00000B910BD17F040F82060FBA008F0A0F8AC
:1004E0002064206C38B1F949206C08F0DBF9022156
:1004F000206C08F003F900BFEBE710B5044624B9FF
:100500004B22F349EAA00AF09CFA206C10B1206C4F
:1005100008F038F9206817F025F810BD10B5442010
:100520000AF0D4FB044614B12046FFF7C0FF204672
:1005300010BD10B5044624B96622E649DCA00AF0D5
:1005400080FA2046FFF7D9FF20460AF0C0FC10BD14
:100550002DE9F0410446A06B20B1A26BD4E90B0158
:1005600009F065FEA06BC0F50050460A7602A76B45
:10057000E26AD1193246D4E90930984705464DB1AF
:10058000E06A206300206063A06B2844A063002021
:10059000BDE8F081D0A00AF078F94FF0FF30F7E71E
:1005A000F8B50446206B20B140F62871A06B884254
:1005B00006D22046FFF7CCFF10B14FF0FF30F8BD58
:1005C000A16B206B16F0D8FF6063606B002806DA21
:1005D000C7A0A16B0AF059F90020A063EFE7D4E9A6
:1005E0000C0108442063666BD4E90D10401AA06327
:1005F000A06BB0F5806F06D22046FFF7A9FF10B1BF
:100600004FF0FF30DBE7A06BE063C048006858B9EB
:1006100000200090BE49206804F138020B6804F104
:10062000300117F053F80546B848006801280BD18F
:1006300000200090B749206804F138020B6804F1EB
:10064000300117F043F80546D4E90E10401A06446D
:10065000B14800683044B0490860206A401C2062FC
:10066000002D2ED015F1020F12D0B5F1FF3F13D19E
:10067000AAA00AF00AF90020A0632046FFF768FF4D
:1006800028B1ADA00AF001F94FF0FF3097E717E06D
:10069000B1A00AF0FAF813E02946B6A0A26B0AF05E
:1006A000F4F8A06B30B1A06B401EA063206B401C1F
:1006B000206304E0E422B749B7A00AF0C2F900BF02
:1006C00081E0B648007800282ED1211D206816F060
:1006D0009BFFB349E068096888421FD0B049E068D1
:1006E0000860B0A0E1680AF0D0F8B2A061680AF032
:1006F000CCF8B4A0A1680AF0C8F8B6A0E1690AF085
:10070000C4F8B8A021690AF0C0F8BBA061690AF07A
:10071000BCF8A34A0221206C08F0A2F8BB4960692A
:10072000086001209D490870B8480068002847DD2E
:10073000A068012833D1B5490968481E27E07349EC
:10074000096879B972490968095C714A126802F846
:1007500010106F490968095C012202EB40026C4BE2
:100760001B6899546949096801290FD169490968C9
:10077000095C684A126802F8101066490968095C49
:10078000012202EB4002634B1B689954401E002873
:10079000D5DA9E49096849009C4A116000BF9B4810
:1007A000006840009A4908609A48006810B9012022
:1007B000984908604FF0FF31974808F02EFA02E0A0
:1007C00096A00AF062F80020F9E62DE9F04104460F
:1007D0000E461746A0463A463146404613F023FCE3
:1007E0000546002D02DC0020BDE8F0812846FBE72D
:1007F00070B506464648006858B942F228300AF0FB
:1008000065FA434908600846006810B986A00AF0F6
:100810003CF84048006858B942F228300AF056FACD
:100820003C4908600846006810B985A00AF02DF818
:10083000384802683648016887A00AF026F821483F
:10084000006858B94FF400500AF040FA1D4908609A
:100850000846006810B987A00AF017F8194801681F
:100860008CA00AF012F80023022291A16A4808F035
:1008700059F910B192A00AF008F899A00AF005F809
:100880000AF03BFD00209E490860204908609D4910
:1008900008606049086064215F4808F0BEF90022E2
:1008A0001146304613F06EFB05462DE1EED40100F3
:1008B0006465636F64657220213D2052545F4E551C
:1008C0004C4C000000000004736E6400A90400009A
:1008D000FFD4010012D5010063616E277420726598
:1008E0006164206D6F726520646174610A000000AC
:1008F0006F75746F662073796E632C2062797465EE
:10090000206C6566743A2025640A0000A800000483
:100910009000000494000004080000044552525F57
:100920004D50335F494E444154415F554E4445520A
:10093000464C4F570A0000006D70335F6465636F6B
:100940006465725F66696C6C5F627566666572206D
:10095000213D20300D0A00004552525F4D50335F5B
:100960004D41494E444154415F554E444552464CD9
:100970004F570A00756E6B6E6F776E206572726FDF
:10098000723A2025642C206C6566743A2025640A2E
:100990000000000025D50100300000000C0000041C
:1009A0000400000473616D70726174652025640D2C
:1009B0000A00000062697472617465202025640D6C
:1009C0000A0000006E4368616E7320202025640DCC
:1009D0000A00000076657273696F6E202025640D31
:1009E0000A0000006269747350657253616D706C27
:1009F00065202025640D0A006F757470757453614D
:100A00006D7073202025640D0A00000010000004A2
:100A1000A0000004AC0000043C0600046E6F206FD0
:100A200075747075740D0A006D616C6C6F6320775E
:100A300061765F62756630206661696C65640A0084
:100A40006D616C6C6F63207761765F6275663120D3
:100A50006661696C65640A006D616C6C6F63207718
:100A600061765F627566302631206F6B20257820B5
:100A700025780A006D616C6C6F63206D70335F6662
:100A8000645F627566666572206661696C65640A9A
:100A9000000000006D616C6C6F63206D70335F66E9
:100AA000645F627566666572204F4B2025780A0088
:100AB0007761765F706C61795F73656D000000002F
:100AC000696E697420666C61635F73656D20736520
:100AD0006D6170686F7265206661696C65640A009B
:100AE000437265617420706C61792073656D20615B
:100AF0006E6420696E6974206F6B200D0A0000001F
:100B0000A40000049C000004002D28DBFFF706FD74
:100B1000044684B1AFF24D306062A56200201049F6
:100B2000086000BF2046FFF73BFD401C0028F9D1BC
:100B30002046FFF7FEFC0B4800680AF0C8F90A4897
:100B400000680AF0C4F9094800680AF0C0F90AF020
:100B5000D4FB07A009F099FE284613F042FA70BDB5
:100B60000800000490000004940000040000000449
:100B70006D703320706C617920656E64200D0A0001
:100B80000246002070472DE9F04F8BB08246B248F4
:100B9000006858B942F228300AF098F8AE49086067
:100BA0000846006810B9ADA009F06FFEB1480068B2
:100BB00058B942F228300AF089F8AE490860084670
:100BC000006810B9ACA009F060FEAA480268A2480B
:100BD0000168AFA009F059FE0AF08FFB0023022242
:100BE000B2A1B64807F09EFF10B1B5A009F04DFEC6
:100BF000BBA009F04AFE0020C1490860C149086055
:100C0000C1490860C14908606421AC4808F005F892
:100C100000221146504613F0B5F90646002E7CDB43
:100C200000BF042203A9304613F0FDF90546042D48
:100C300005D0B7A009F029FE0BB0BDE8F08F042263
:100C4000B9A103A81CF07BF888B9082201A9304695
:100C500013F0E9F905460422B5A102A81CF06FF8CB
:100C600020B102A9B4A009F010FEE5E724E00422B7
:100C7000B8A103A81CF063F8F0B9142205A9304606
:100C800013F0D1F90546142D03D0B4A009F0FDFDF1
:100C9000D2E70598102807D00598A0F1100202A904
:100CA000304613F0C0F900BFBDF81A00022803D087
:100CB000B2A009F0EAFDBFE70422B8A103A81CF026
:100CC0003EF80028ADD1042202A9304613F0ABF95A
:100CD0000546042D03D0B3A009F0D7FDACE70020F2
:100CE0008146804602990898B1FBF0F44FF46160A8
:100CF000B4FBF0F048B14FF46160B4FBF0F8C8EB1E
:100D00004810C0EB0820A4EB00143C20B4FBF0F02A
:100D100040B13C20B4FBF0F900E09AE0C9EB0910C7
:100D2000A4EB80040AF0EAFE83460622A3A11CF08D
:100D300006F8B0B9A3A009F0A8FDBDF81A10A4A048
:100D400009F0A3FDA6A0079909F09FFDBDF82610A4
:100D5000A8A009F09AFD23464A464146AAA009F0F8
:100D600094FDB0A007F05CFC07461FB9AEA009F0E7
:100D70008CFD61E70798029002AA0221384607F02D
:100D80006FFD20B1AFA0029909F07FFD54E7BA4989
:100D9000384607F087FD0221384607F0AFFC0020F7
:100DA0005A49086057490860B4A009F06EFD05F083
:100DB00002FD0A90B6A00A9909F067FD05F04FFD03
:100DC0000A90B7A00A9909F060FD64213B4807F03A
:100DD00024FF00BF4B48006838B94FF400521E484A
:100DE0000168304613F01FF905464648006801289F
:100DF00006D142031F480168304613F014F9054636
:100E00004FF40050AA4908604048006810B901201A
:100E10003E4908604FF0FF31284807F0FEFE002DE4
:100E2000D8D1A4A009F031FD6421244807F0F5FED3
:100E3000384607F0A7FC084800680AF048F80D4853
:100E400000680AF044F80AF058FA304613F0C9F87E
:100E500000BF00BFF0E60000900000046D616C6C04
:100E60006F63207761765F62756630206661696CBA
:100E700065640A00940000046D616C6C6F632077F8
:100E800061765F62756631206661696C65640A002F
:100E90006D616C6C6F63207761765F62756630267A
:100EA00031206F6B2025782025780A007761765FE6
:100EB000706C61795F73656D000000003C06000492
:100EC000696E697420666C61635F73656D2073651C
:100ED0006D6170686F7265206661696C65640A0097
:100EE000437265617420706C61792073656D206157
:100EF0006E6420696E6974206F6B200D0A0000001B
:100F0000A4000004A80000049C000004AC0000043D
:100F1000726561642072696666206368756E6B2015
:100F20006661696C210D0A005249464600000000C6
:100F300057415645000000005249464620666F72F0
:100F40006D6174206572726F723A252D34730D0ACB
:100F500000000000666D742000000000726561648E
:100F6000207269666620666F726D617420626C6FB4
:100F7000636B206661696C210D0A00005B6572720B
:100F80005D206F6E6C7920737570706F7274207352
:100F9000746572656F210D0A000000006461746160
:100FA00000000000726561642064617461207369EF
:100FB0007A65206661696C210D0A000074736865AA
:100FC0006C6C000077617620696E666F3A0D0A00DE
:100FD0004368616E6E656C733A2564200000000002
:100FE00053616D706C65735065725365633A256427
:100FF000200000004269747350657253616D706C1B
:10100000653A25640D0A0000706C61792074696D81
:10101000653A20253032643A253032643A25303240
:10102000640D0A00736E6400617564696F20646505
:1010300076696365206E6F7420666F756E64210D2E
:101040000A000000617564696F20646576696365F4
:1010500020646F65736E277420737570706F72747F
:1010600020746869732073616D706C65207261749F
:10107000653A2025640D0A00810B000072656164E9
:101080002066696C6520706167650D0A00000000CC
:101090004D61696E436C6B202564202000000000C8
:1010A000537973436C6B20256420200D0A000000E7
:1010B000A0000004636C6F73656420776176207014
:1010C000616C790D0A00000070B50446200C00F038
:1010D0007FFB0546A0B200F07BFB064645EA0640D2
:1010E00070BD10B50446DDA0D4E9041209F0CDFBB3
:1010F000E1A0D4E9061209F0C8FBE5A0216A09F0D5
:10110000C4FBE8A0616A09F0C0FBEBA0E16A09F04A
:10111000BCFBEFA0E16C09F0B8FBF3A0A16B09F0F8
:10112000B4FBF7A0616C09F0B0FBFAA0A16C09F068
:10113000ACFB10BD2DE9F04FC9B081460C464FF015
:101140000008C24600BF019801900022114648469F
:1011500012F0B9FF002803DA002049B0BDE8F08F93
:10116000042209A9484612F05EFF042801DA002093
:10117000F3E70422EDA109A809F07AF808B10020EC
:10118000EBE70420E064BFE0042209A9484612F01E
:101190004AFF042801DA0020DFE79DF8240000F070
:1011A000800A9DF8250000049DF8261040EA0120E1
:1011B0009DF8271040EA0106301DE16C0844E06408
:1011C0009DF8240000F07F00002868D1324609A96C
:1011D000484612F028FF002801DA0020BDE704A9E4
:1011E000484612F0EFFF069820649DF825009DF810
:1011F000241040EA012020619DF827009DF8261068
:1012000040EA012060619DF8280000049DF8291043
:1012100040EA01209DF82A100843A0619DF82B00A8
:1012200000049DF82C1040EA01209DF82D10084381
:10123000E0619DF82E0000039DF82F1040EA011098
:101240009DF8301040EA111020629DF83000C0F384
:101250004200401C60629DF83000C007C00E9DF83F
:10126000311040EA1110401CE0629DF83200000687
:101270009DF8331040EA01409DF8341040EA012007
:101280009DF835100843A063216AA06BB0FBF1F014
:101290004FF47A71484360644FF0010834E09DF8E0
:1012A000240000F07F00032825D11CE0122209A9A8
:1012B000484612F0B8FE0746122F01DA00204CE72C
:1012C000F61B09AD01CDFFF7FFFE029001CDFFF740
:1012D000FBFE039001CDFFF7F7FE019001CDFFF774
:1012E000F3FE834600BF122EE0DA01223146484663
:1012F00012F0E9FE08E001223146484612F0E3FE12
:10130000002801DA002028E7BAF1000F3FF43CAFD3
:10131000B8F1000F09D0E16C206C401AC000616C7C
:1013200090FBF1F0A064012017E7002015E70246CA
:10133000002070472DE9F041074600207D490860F4
:10134000002302227CA1804807F0ECFB10B17FA0B3
:1013500009F09BFA86A009F098FA8D48006858B900
:1013600044F6382009F0B2FC894908600846006854
:1013700010B988A009F089FA8C48006858B944F679
:10138000382009F0A3FC894908600846006810B9B4
:1013900087A009F07AFA8C48006858B944F63820DA
:1013A00009F094FC884908600846006810B987A0D5
:1013B00009F06BFA844803687C4802687448016845
:1013C0008AA009F062FA09F098FF002090490860AD
:1013D00090490860904908609049086064215A4823
:1013E00007F01BFC00221146384612F0CBFD8C4959
:1013F000086008460068002806DA394689A009F026
:1014000044FA0120BDE8F0818BA007F009F90646F7
:101410003EB18A49304607F045FA0221304607F0CE
:101420006DF987497E480068FFF784FE8448FFF71E
:1014300058FE8348006982494969884209D1804839
:101440004069B0F5905F04DC7D48C069B0F5A04FFD
:1014500003DD7CA009F019FA06E10AE10A0D20205B
:10146000426C6F636B73697A653A202564202E2E77
:101470002025640A0D00000020204672616D65730E
:10148000697A653A202564202E2E2025640A0D00F5
:10149000202053616D706C65726174653A2025641B
:1014A0000A0D000020204368616E6E656C733A205F
:1014B00025640A0D0000000020204269747320702A
:1014C00065722073616D706C653A2025640A0D00A9
:1014D00020204D65746164617461206C656E677471
:1014E000683A2025640A0D002020546F74616C2036
:1014F00053616D706C65733A20256C750A0D0000A0
:1015000020204475726174696F6E3A202564206DE5
:10151000730A0D002020426974726174653A2025B7
:1015200064206B6270730A0D00000000664C61431A
:1015300000000000140000047761765F706C617930
:101540005F73656D000000003C060004696E6974FD
:10155000207761765F706C61795F73656D2073656C
:101560006D6170686F7265206661696C65640A0000
:10157000437265617420706C61792073656D2061C0
:101580006E6420696E6974206F6B200D0A00000084
:10159000900000046D616C6C6F63207761765F6210
:1015A000756630206661696C65640A009400000409
:1015B0006D616C6C6F63207761765F627566312058
:1015C0006661696C65640A00980000046D616C6C6A
:1015D0006F6320706C61795F74656D705F627566B2
:1015E000666572206661696C65640A006D616C6C89
:1015F0006F63207761765F6275663026312074658F
:101600006D70206F6B2025782025782025780A00C2
:10161000A4000004A80000049C000004AC00000426
:101620001C00000443616E206E6F74207061727341
:10163000652025730A000000736E64002F130000FC
:10164000880200040A0D4F6F20446F206E6F7420D3
:10165000737570706F727420746869732066696C3A
:101660006521210A0D0000005CA009F00EF90020A0
:10167000C8E6694A0221304607F0F2F867A009F08F
:1016800004F94FF4A04009F021FB6B4908606BA0FE
:1016900009F0FBF84FF4A042674801686E48006803
:1016A00012F0C1FC6D4908606FE06D4800685A494E
:1016B0002039C8666B48006890B96B480068886636
:1016C00069480368654802685B48016852482038E9
:1016D0001BF0BCF9002803DA64A009F0D6F858E042
:1016E00060480068012814D1664800684A492039DA
:1016F000886664480368594802684F48016846484C
:1017000020381BF0A3F9002803DA58A009F0BDF82F
:101710003FE0414920398868C11700EB5171CD1075
:101720004E480068421B444800684119424800681E
:1017300008F07DFD49480068401B4849086008469C
:101740000068C0F5A0423C4800680B461B68C11801
:101750004148006812F067FC0446002C04DD3F4855
:10176000006820443D4908602B48203840698000CB
:10177000454908604548006810B9012043490860A0
:101780004FF0FF31424807F048FA3448006800281B
:101790008BD100BF304606F0F5FF3D4807F0DBF97E
:1017A0002548006809F093FB2F48006809F08FFB7B
:1017B0003448006809F08BFB2948006809F087FB72
:1017C00009F09BFD2448006812F00BFC002019E68C
:1017D0000146081240EA012080B27047596F752017
:1017E00063616E2063686F6F736520616E6F7468EC
:1017F000657220436F6E7665727465722E537563E1
:101800006820617320666F6F626172323030302001
:101810005E5F5E0A0D000000A802000472745F6D36
:10182000616C6C6F6320666C61635F66696C656296
:1018300075660D0A000000001800000472745F6DE8
:10184000616C6C6F6320666C61635F66696C656276
:101850007566206F6B0D0A001C0000041400000464
:1018600098000004A8000004900000044445434F81
:101870004445204552524F522C2041424F52544928
:101880004E470A0094000004A0000004AC000004CD
:101890003C06000410B5044690231D2200218E480A
:1018A00000F001F990230A2201218B4800F0FBF897
:1018B000902309220121884800F0F5F81D2200211B
:1018C000864800F0FBF800231D221946834800F0EB
:1018D000F0F80A220121814800F0F0F801230A22E1
:1018E00019467E4800F0E5F8092201217B4800F006
:1018F000E5F8012309221946784800F0DAF81D209E
:10190000774908640021764841640A2181640121F5
:10191000C1640921016501214165002010BD024615
:10192000002070470146002070472DE9F0478046AF
:101930000D4691461E460024B2464F4668488045F3
:1019400004D04422674968A009F07BF8A81903284D
:1019500004D94522634969A009F073F800240EE018
:1019600029195F48403050F831005C49405C10B1A3
:101970000020387001E0012038707F1C641C544541
:10198000EED32046BDE8F0872DE9F04707460D4627
:1019900090461E460024B146C2465148874204D0B4
:1019A0005D225C4950A009F04CF8A819032804D91D
:1019B0005E22584951A009F044F800241FE09AF82B
:1019C000000000280DDD2B194548403010F8332069
:1019D0002B1900EBC30001790023404800F069F89F
:1019E0000CE02B193E48403010F833202B1900EB47
:1019F000C30001790123394800F05BF8641C4C45B1
:101A0000DDD32046BDE8F08703460020704710B5BF
:101A1000002033490875C86108623F4848623F4862
:101A200088623F48C8623F4808633F4848633F4870
:101A300088630020C86303223DA1294806F016FEF2
:101A40002748FFF727FF002010BD70B504460D465C
:101A500015B1012D18D10BE02148403010F8342089
:101A600000EBC400017901231C4800F022F80CE0CF
:101A70001B48403010F8342000EBC40001790023EB
:101A8000164800F016F800E000BF00BF70BD38B582
:101A900004460D46E8B2009001236A4621461048EC
:101AA000FFF772FF38BD10B500EBC11444F82230C7
:101AB00010BD10B500EB4114A35410BD10B500F5D6
:101AC000005353F8214001239340234300F5005471
:101AD00044F8213010BD00000010004000C0084054
:101AE000F802000435D50100646576203D3D2026CE
:101AF0006C65642E706172656E74000028706F737F
:101B0000202B2073697A6529203C3D204C45445F99
:101B10004E554D0041D50100951800001F190000D9
:101B2000251900002B19000089190000091A00006E
:101B30006C65640030B503461446B3FBF1F000FB5E
:101B40001132B3FBF1F0401C4843C51A954200D254
:101B50002A462068904201D8002030BD226095427C
:101B600001D1012000E00020401CF6E7F8B5044652
:101B70000025681E0090608928B9207A08B1207A73
:101B800000E01020054612E0626802FB05F16A469B
:101B90002068FFF7CFFF064606B907E0701E608198
:101BA000207AA84200D104E0257200BF6D1E042DEA
:101BB000EADC00BF207A08B9D048F8BD217A606815
:101BC00048432168B1FBF0F0618908446081608975
:101BD00008B9CA48F1E76089217A48432168B1FB16
:101BE000F0F060600020E8E710B502460B460BB14C
:101BF000102000E005200446102107E0B2FBF1F0C0
:101C000001FB102008B9084610BD491EA142F5DAB3
:101C10000020F9E7F0B50246140E160201F58071B6
:101C20004FF08070B0FBF1F303FB01F0C0F1807561
:101C300005FB04F006EB0020B0FBF1F703FB04F01A
:101C400007EB0020F0BD2DE9F84F04464FF0FF30C0
:101C50000090D4F800A0257A00262CE0AB4631464F
:101C60005046FFF7D7FF07466A4638466168FFF7D8
:101C700061FF80466068B7FBF0F04044A0F10109C5
:101C8000B8F1000F0DD025B1B9FBF5F005FB1090B0
:101C900038B93DB9E9B24846FFF7A6FFB0F1000BED
:101CA00000D107E084F808B066722760A8F101004F
:101CB000608100BF761CFF2ED0D9BDE8F88FF0B54B
:101CC00085B006460F4626B938228D498DA008F00A
:101CD000B8FEF46B206804F04EFF0546002D02DAD2
:101CE000284605B0F0BD00BF8B48006800F0070033
:101CF000072804D102208849086000BF00BF04F013
:101D000030FE02903868039000208DF81000ADF886
:101D100012008DF811009DF8110010B902A8FFF70C
:101D200092FF02A8FFF722FF04200090BDF81200E6
:101D3000ADF804009DF810008DF806007749206882
:101D400008609DF80600401E00F00F0021688862C0
:101D5000BDF80400401E80B22168086270490098F6
:101D6000084040F00100216808609DF81100FF2143
:101D700041EA0022684BB8331A6000BF042066496C
:101D8000383941F8250000BF02202168C1F8080E4B
:101D90002068D0F8100E40F008002168C1F8100E3D
:101DA00000209EE72DE9F04105460E46174625B96D
:101DB0006F225C4953A008F044FEEC6B102E08D053
:101DC000112E0DD12068006920F001002168086102
:101DD00006E02068C06840F001002168C86000BFCC
:101DE00000BF0020BDE8F08110B50246D36B00BFF4
:101DF0001868846804F004000028F9D01868C0F856
:101E0000201E012010BD10B50146CA6B1068D0F825
:101E1000044E04F0400030B11068D0F8300EC0F32A
:101E20000803184610BD4FF0FF30FBE71CB508F063
:101E300047F93D48006800F01F000190019808280C
:101E400004D1012139480AF031FE03E03848406AE4
:101E5000009000BF00BF08F042F91CBD7CB53549B9
:101E600003C9CDE90001344C3448304908640846C0
:101E7000DDE90012C0E91112C46340F281130022AF
:101E800011462F4800F033F840F28113012200215F
:101E90002B4800F02CF8206806F0E7F800B1F0BEFF
:101EA00094F904000921002807DA4A07150E254A8B
:101EB00000F00F031B1FD55403E04A07130E224AFC
:101EC000135400BF94F9040000F01F020121914057
:101ED0004209920002F1E022C2F8001100BF23463D
:101EE00040F2431219A111480AF065FD7CBD10B5FE
:101EF00000EBC11444F8223010BD000006000800B9
:101F000064D5010073657269616C20213D205254D3
:101F10005F4E554C4C000000E802004020000004D9
:101F2000FDDBFD0072D50100186E0840500300046F
:101F30000060084080D501002400000450D5010055
:101F40000010004018ED00E000E400E075617274DC
:101F50003000000010B54FF4706240F622631B5A47
:101F600040F67F749443234040F62264235200BF1E
:101F70004B1E1B071A0D23461B5A40F67F74234045
:101F8000134340F62264235200BF10BD70477047D0
:101F900010B508F095F800BFFE48406800F0040056
:101FA00078B30621FB4800F058FB00BFF94800F069
:101FB00058FB00F040000028F8D10621F54800F059
:101FC0005EFB0621F34800F04FFB0621F14800F0CC
:101FD00040FB0721EF4800F040FB00BFED4800F058
:101FE00040FB00F080000028F8D10721E94800F00C
:101FF00046FB0721E74800F037FB0721E54800F0E2
:1020000028FB00BFE348406800F0020080B3E148CD
:1020100000F02EFB00F0400088B10621DD4800F002
:102020002AFB0120DC490870DC480078012806D131
:1020300000200870D9490870D94806F07AFED548C2
:1020400000F016FB00F0800090B10721D14800F0AD
:1020500012FB0120D1490870CF480078012807D130
:102060000020CD490870CD490870CD4806F061FECA
:1020700008F035F810BD10B500230122C9A1C848E9
:1020800006F050FD10B1CCA008F0FFFBD3A008F083
:10209000FCFB6421C24806F0C0FD0020BE49087068
:1020A000BE490870BB48D649086000BF142004F040
:1020B000A2FB00BF00BF0120B649086000BFD148A5
:1020C000886000BF0846006A40F0C0000862084609
:1020D000806C40F0C001AF4881640121CA480160B2
:1020E0004FF00111C84810300160012001218140EA
:1020F0004209920002F1E022C2F8001100BF10BDB7
:10210000F0B5A44CA468C14D2C603C24C04D2C609B
:1021100000BF79B1BF4CC04D6C60541E0C44AC6024
:102120000024EC60541E44F2150545EA0444BA4DFF
:102130002C600CE0B74CB84D6C60B84CAC6000241F
:10214000EC60541E152545EA0444B34D2C6080B163
:10215000541E0444B24D6C60AE4C103CAC60002484
:10216000EC60541E41F2150545EA0444AC4D2C6068
:102170000DE0AC4CAA4D6C60A64C103CAC60002449
:10218000EC60541E152545EA0444A54D2C609F4C77
:102190002468A14F97E86010FF68C4E91AC7C4E932
:1021A00018569A4C2468DFF878C29CE8E010703426
:1021B000A4E8E01041F2385306E0764C246B04F0BA
:1021C000C00404B902E05B1E002BF6D100BF41B190
:1021D000541E44F2150545EA04458B4C083425602D
:1021E00006E0541E152545EA0445874C0834256051
:1021F00040B1541E41F2150545EA0445824C18349D
:10220000256006E0541E152545EA04457E4C183429
:102210002560F0BD2DE9FC4105460C462E6C824838
:102220008249086082480078002874D101208049E2
:10223000087091230B2200217E4800F0FFF99123C2
:102240000C2200217B4800F0F9F991230D22002196
:10225000784800F0F3F990230E220021754800F031
:10226000EDF9754800210E2200F5005353F8213096
:102270004FF0010C0CFA02FC43EA0C0300F5005C81
:102280004CF8213000BF012300F0DEF96078082807
:1022900004DC08216448FFF75DFE0AE0607810283E
:1022A00004DC10216048FFF755FE02E00820BDE87D
:1022B000FC81207800F00200022807D1207800F08D
:1022C000010018B130208DF806001BE0207800F0E6
:1022D000020038B9207800F0010018B120208DF8F4
:1022E00006000FE0207800F00200022807D12078D5
:1022F00000F0010018B910208DF8060002E000205F
:102300008DF80600207800F0040028B1019820F430
:102310007F40019006E09FE0019820F47F4000F5A7
:1023200080700190019820F0FF00401C019001A9ED
:102330003D4805F06BFA002000F10802012303FA82
:1023400002F1334A083A126840F6BD738B431A40D3
:10235000354BC3F8002400BF00BF01208DF80000FA
:102360008DF801008DF802008DF8030069461846CB
:1023700005F01AFB00200146032242EA002242EA4D
:102380000142244B283B1A6000BF4FF21300214941
:10239000303953E0002008403A00000439000004BE
:1023A000C4030004737069315F74785F646F6E6595
:1023B0005F73656D00000000696E69742073706959
:1023C000315F74785F73656D2073656D6170686FE0
:1023D0007265206661696C65640A0000437265611C
:1023E0007420737069315F74785F73656D20616EFE
:1023F0006420696E6974206F6B200D0A0000000074
:102400003400000400080004602408404400000474
:1024100008940840309E0840A40300043B000004D8
:10242000B40300043F00000400900840480000048A
:102430004C0000040010004000C0084008600C2060
:102440004FF4987101EA90018F4AC2F810148F4935
:10245000086000BFFFF70FFE8B48616805F07AFA4D
:10246000074639468AA008F010FA00201FE72DE938
:10247000F05F06460C46D6F8409006F14407D9F8BE
:102480006C50D6F83CA0D4F80880207C00F0010005
:1024900028B100230E221946864800F0D5F8A0681E
:1024A000202812D97878082808DC4FF213007749E1
:1024B0001439086094E80700FFF722FE4FF0FF315F
:1024C0007D4806F0AAFB83466BE0787808283DDC5F
:1024D00013206E49143908607849206808607849EB
:1024E000606808602CE0FF207449096839B17349BD
:1024F0000968087871490968491C704A116000BF71
:10250000D5F8041E01F010010029F9D040F4803103
:10251000C5F8201E00BFD5F8041E01F040010029B7
:10252000F9D0D5F8301EC8B26549096839B1644997
:102530000968087062490968491C614A116000BF56
:10254000B8F10000A8F10108CDD12AE07878102870
:1025500027DC206861681EE0FF2208B130F8022BFA
:1025600000E030BFD5F8043E03F01003002BF8D094
:1025700042F48033C5F8203E00E030BFD5F8043E79
:1025800003F04003002BF8D0D5F8303E9AB209B1E1
:1025900021F8022B00BFB8F10002A8F10108DBD13D
:1025A00000BF207CC0F3400028B101230E2200218F
:1025B000404800F049F8A068BDE8F09F2DE9F041DF
:1025C00006460C461746304886421AD1E0664FF45C
:1025D000C8723CA140A008F058F9304605F0F6F862
:1025E000054605B192BE00BF01204049096840F68A
:1025F000BD7211400143244AC2F8001400BF00BF5D
:1026000002E00620BDE8F081394A394620460AF04A
:102610002BFFF7E710B527483649086000200871FE
:102620000E20886034A236491748FFF7C7FF314BA8
:1026300031A234A135480AF030FF10BD10B500EBCF
:10264000C11444F8223010BD10B500EB4114A3545E
:1026500010BD01228A400262704701228A408262D4
:1026600070470146886B704701228A4002647047B8
:102670000146886D704701228A40826570470122B9
:102680008A4082677047000000900840149E08400E
:102690002D2D2D2D2D2D2D2D2D2D73706920636C3D
:1026A0006F636B202564202D2D2D2D2D2D2D2D2D8F
:1026B0002D0D0A0000C00840C403000450000004AF
:1026C00054000004647269766572735C6472765FAC
:1026D0007370692E63000000496E6974205350497D
:1026E0002025732025730D0A000000000094084087
:1026F0002C000004740400047370693100000000B1
:102700000404000473706931300000008004000488
:102710002DE9E043804689461546A07800F0010087
:1027200080B14DA008F0B1F84E484F494860681E8E
:1027300048814E4808600120088120788873002075
:10274000888119E04AA008F0A0F846484649486048
:1027500000204881454808600D8120788873002654
:1027600004E0A068805D41498855761C681EB0422F
:10277000F7D800203C4988813B49404804F09EFB43
:102780003948808930B9384881893DA008F07DF802
:10279000012705E03448818944A008F076F8002735
:1027A000A07800F0010060B16A1E2E49A06807F011
:1027B00000FDA0684278017847A008F066F82A4832
:1027C00047893846BDE8E08310B547A008F05DF8BA
:1027D00040F2813319220021474800F036F840F2D8
:1027E00081331A220021444800F02FF8234C0321A2
:1027F000204604F015FA142030B1B0F5803F03D81C
:10280000411E3E4A116002E000213C4A116000BFB7
:102810003B491A4804F078FA00BF38481438006879
:1028200000F01F0040F001001449C1F8000800BF8B
:1028300078220021334807F098FC33483149086476
:1028400032A1304800F066F810BD10B500EBC1149D
:1028500044F8223010BD00006932632072642020E9
:1028600000000000DC040004EC040004CC040004BC
:1028700069326320777220200000000000A0084029
:102880002D2D2D2D2D2D2D2D2D2D2D2D693263200E
:10289000747275652D2D2D2D2D2D2D2D2D2D2D2D5C
:1028A0002D2D2D2D2D2025640D0A00002D2D2D2DD3
:1028B0002D2D2D2D2D2D2D2D6932632066616C73EC
:1028C000652D2D2D2D2D2D2D2D2D2D2D2D2D2D2D00
:1028D0002D2D2025640D0A006932632072642025A5
:1028E0007820257820000000696E7374616C6C207C
:1028F00069326331200D0A000010004014A808401E
:10290000A0860100FC04000488D50100693263310F
:102910000000000070B504460D460026002266A1A6
:1029200004F1480006F04FFAE06E08B96420E06652
:102930002946204600F0ACF90646294662A007F079
:10294000A4FF304670BD70B50546284605F068FE08
:10295000044614B1207D082805D0294661A007F05F
:1029600094FF002070BDE66B3046FBE72DE9FF4188
:1029700006460D461746306C0068002848D00024F3
:102980002FE004EB440005EB80008068827804EBC4
:10299000440005EB80008068417804EB440005EBBF
:1029A00080008068007804EB440305EB83039B8878
:1029B000CDE90030CDE9021204EB440035F82030B7
:1029C00004EB440005EB8000807800F0010008B1C2
:1029D000522000E057200246214648A007F055FF4C
:1029E000641CBC42CDD34FF0FF3106F1480006F025
:1029F00070FA306C3A4629460368304698470446D8
:102A000006F1480006F06BFB204604B0BDE8F081FB
:102A10004AA007F03AFF0020F7E72DE9FE430746FA
:102A20000C4615461E46DDF82880ADF8004005F03E
:102A30000400ADF802001FFA88F0ADF80400029619
:102A4000012269463846FFF791FF8146B9F1000F30
:102A500002D04046BDE8FE834846FBE72DE9FE4331
:102A600005460E4617469846DDF8289025B975228A
:102A70003B493CA007F0E5FFADF8006007F004001B
:102A8000ADF80200BDF8020040F00100ADF8020010
:102A90001FFA89F0ADF80400CDF8088001226946DC
:102AA0002846FFF763FF044614B14846BDE8FE839D
:102AB0002046FBE7002070476932635F6275735FF1
:102AC0006C6F636B00000000493243206275732015
:102AD0005B25735D20726567697374657265640A4E
:102AE0000000000049324320627573202573206E78
:102AF0006F742065786973740A0000006D736773E2
:102B00005B25645D2025632C20616464723D307810
:102B1000253032782C206C656E3D25642052656727
:102B20002025782044617461312025782044617427
:102B30006132202578200D0A000000004932432030
:102B4000627573206F7065726174696F6E206E6F4D
:102B50007420737570706F727465640A00000000F1
:102B600094D5010062757320213D2052545F4E556B
:102B70004C4C00002DE9F84F04460D4616461F4602
:102B8000D4F83CA0BAF1000F04D125224F4950A03F
:102B900007F057FF26B926224C4951A007F051FFF4
:102BA0003A46214653A007F070FE1FFA85F84FF60B
:102BB000FF7000EA254933464A4641465046009791
:102BC000FFF74CFFBDE8F88F2DE9F84F04460D469E
:102BD00016461F46D4F83CA0BAF1000F04D13922A2
:102BE0004D493BA007F02DFF26B93A224A493CA0A7
:102BF00007F027FF3A46214648A007F046FE1FFA95
:102C000085F84FF6FF7000EA254933464A464146AB
:102C100050460097FFF701FFBDE8F88F2DE9F04718
:102C2000804689461446D8F83C5025B94C22434981
:102C300027A007F006FFB9F1200F09D0B9F1210F45
:102C40000DD0B9F1220F0ED0B9F1230F1CD10DE038
:102C5000B5F8440040F00400A5F8440015E02088D1
:102C6000A5F8460011E02068E8660EE027462846F1
:102C7000D7E90012FFF77AFE0646002E03DA6FF05E
:102C80000700BDE8F08700E000BF00BF0020F8E7C4
:102C900070B504460E4624B96D2229490CA007F0F0
:102CA000D0FE2546EC630820287500206862A862E3
:102CB000E86224482863244868632448A863032200
:102CC0003146284605F0D2FC002070BDA7D5010092
:102CD00062757320213D2052545F4E554C4C0000CC
:102CE00062756666657220213D2052545F4E554CD8
:102CF0004C000000493243206275732064657620E1
:102D00005B25735D2072656164696E67202575209F
:102D100062797465732E0A00BBD5010049324320E5
:102D2000627573206465762077726974696E6720B6
:102D300025752062797465732E0A0000D0D50100D4
:102D4000E7D50100752B0000C92B00001D2C0000E9
:102D500070B50446216C01F144004FF0FF3106F0DC
:102D6000B8F8054675B9206C806EA0420AD0206C78
:102D7000006C04F1440102682046904705460DB9F5
:102D8000206C8466284670BD10B586B004460020CD
:102D9000019002900390059820F00100401C0590DE
:102DA000059820F002000590206C006C01A9426893
:102DB0002046904706B010BD10B586B004460020EE
:102DC000019002900390059820F00100059005986D
:102DD00020F00200801C0590206C006C01A9426864
:102DE0002046904706B010BD2DE9F04104460F463D
:102DF000E51905F0E4FB06464FF00008A54207D3AD
:102E0000AE4202D34FF001080BE04FF0000808E09B
:102E1000A64204D2AE4202D34FF0010801E04FF0C7
:102E200000084046BDE8F081F0B502460B460020A0
:102E3000002126E0555C00241DE0C0F38016C5F398
:102E4000C01786EA070CBCF1000F08D080F0040020
:102E50004FEA406C4FEA1C6040F0010003E04FEA8B
:102E6000406C4FEA1C6004F1010C0CF0FF044FEAC7
:102E7000456C4FEA1C65082CDFDB01F1010C0CF0FE
:102E8000FF019942D6DBF0BD70B588B0044605F06D
:102E900096FB0546FF20029002A8039001A804902B
:102EA00001200590079820F00200410861F300001E
:102EB000079022E0206C006C03A9426820469047EE
:102EC0009DF80400FF2802D1002008B070BD4FF427
:102ED0007A7005F097FB064631462846FFF784FFD7
:102EE00058B105F06CFB06463146F5A007F0CDFC65
:102EF000F6A007F0CAFC0220E7E7DBE72DE9F04F78
:102F00008BB004468A4615461F46DDE91468FF204B
:102F10008DF810004AF040008DF81100280E8DF851
:102F20001200280C8DF81300280A8DF81400E8B25E
:102F30008DF815004FB905210DF11100FFF774FF51
:102F40000746012000EB4700C7B28DF81670FF203E
:102F50008DF8170004A8069002A807900820089092
:102F60000A9820F00200410861F300000A90204610
:102F7000FFF78AFF206C006C06A942682046904744
:102F80004FF001091CE0FF20019001A80690CDF848
:102F90001C80012008900A9820F00200410861F38B
:102FA00000000A90206C006C06A9426820469047F9
:102FB00098F8000000F0800000B904E009F1010970
:102FC000B9F1090FDFD300BFB9F1090F03D1012017
:102FD0000BB0BDE8F08F012E01D10020F8E7022EE2
:102FE00029D105F0ECFA834624E00020069001A8E0
:102FF0000790012008900A9820F00200410861F330
:1030000000000A90206C006C06A942682046904798
:103010009DF80400FF2801D10020D9E74FF4FA60A1
:1030200005F0F0FA014600905846FFF7DDFE08B1C2
:103030000220CDE7D9E7032E14D10020069008F135
:1030400001000790012008900A9820F00200410832
:1030500061F300000A90206C006C06A942682046CB
:1030600090471AE0042E01D0072E14D100200690BC
:1030700008F101000790042008900A9820F002004F
:10308000410861F300000A90206C006C06A94268B8
:103090002046904701E001209AE7002098E7F0B52C
:1030A00087B004460D4605F08AFA0646FF200190D7
:1030B00001A80290CDF80CD001200490069820F0D1
:1030C0000200410861F30000069022E0206C006CD1
:1030D00002A94268204690479DF80000A84202D10C
:1030E000002007B0F0BD4FF4487005F08BFA07469A
:1030F00039463046FFF778FE58B105F060FA0746CA
:1031000039466FA007F0C1FB77A007F0BEFB022095
:10311000E7E7DBE7F0B587B004460D461646FE212B
:103120002046FFF7BCFF074617B1384607B0F0BD91
:103130000020029003950496069820F002004108B2
:1031400061F300000690206C006C02A942682046E2
:1031500090470020029001A8039002200490069856
:1031600020F00200410861F300000690206C006C22
:1031700002A94268204690470020D7E72DE9F04396
:103180008BB004460D4616461F461022FF2102A8AA
:1031900006F0EBFF8DF8177002A80690002007904C
:1031A000102008900A9820F00200410861F3000006
:1031B0000A90206C006C06A942682046904706954C
:1031C0000020079008960A9820F00200410861F359
:1031D00000000A90206C006C06A9426820469047C7
:1031E00002A8069001A80790032008900A9820F0F2
:1031F0000200410861F300000A90206C006C06A9EF
:103200004268204690479DF8060000F01F08B8F17C
:10321000050F0ED005F0D3F98146494628A007F0E6
:1032200034FB41463AA007F030FB01200BB0BDE86B
:10323000F0832046FFF728FEF8E72DE9F04F8DB028
:103240008046894692461E464446E06CFFF780FD64
:10325000054655B105F0B3F90746394618A007F001
:1032600014FB38A007F011FB40E108208DF8250081
:1032700004208DF82400606D0A9009A9E06C0AF022
:1032800031F9012E6CD1E06CFFF77EFD0BA8012116
:10329000CDE90010616C01FB09F200231821E06CFC
:1032A000FFF72CFE054615B99DF82C0038B105F046
:1032B00086F90746394602A007F0E7FA51E055E0E3
:1032C0005B4D53445D202564200000005B657272F5
:1032D0005D20776169742072656164792074696D1D
:1032E000656F7574210D0A005B6572725D207761F0
:1032F0006974206461746120737461727420746FE6
:103300006B656E2074696D656F7574210D0A000020
:103310005B6572725D20777269746520626C6F63A1
:103320006B206661696C2120646174612072657331
:10333000706F6E7365203A203078253032580D0A50
:10334000000000005B6572725D2067657420535059
:1033500049206F776E6572206661696C210D0A00E5
:103360001BE0FAA007F091FA0026BFE0FE235146C9
:10337000626CE06CFFF702FF0546002D0CD005F0F3
:103380001EF907463946AFF2C80007F07EFA4946F3
:10339000F6A007F07AFA0026A7E0012EFCD9E06C2F
:1033A000FFF7F2FC94F85000012837D00BA8012158
:1033B000CDE9001000231A463721E06CFFF79EFD8F
:1033C000054615B99DF82C0060B105F0F8F8834664
:1033D0005946AFF2141007F058FAEEA007F055FA6C
:1033E000002683E00BA80121CDE90010002332461E
:1033F0001721E06CFFF782FD054615B99DF82C00FA
:1034000060B105F0DCF883465946AFF24C1007F086
:103410003CFAE7A007F039FA002667E00BA8012183
:10342000CDE90010616C01FB09F200231921E06C69
:10343000FFF764FD054615B99DF82C0060B105F055
:10344000BEF883465946AFF2881007F01EFAE2A094
:1034500007F01BFA002649E0002717E0626C02FB28
:1034600007A1FC23E06CFFF789FE05466DB105F06E
:10347000A6F883465946AFF2B81007F006FA494657
:10348000BAA007F002FA3E4602E07F1CB742E5D33D
:1034900000BF1222FF2101A806F067FEFD208DF873
:1034A000150001A8069000200790122008900A98A5
:1034B00020F00200410861F300000A90E06C016C0A
:1034C000096C4A6806A99047E06CFFF7DDFC0546E9
:1034D00055B105F074F883465946AFF21C2007F049
:1034E000D4F9C7A007F0D1F900BF00BFE06CFFF727
:1034F00063FCE16C096C01F1440005F0F0FD30461D
:103500000DB0BDE8F08F2DE9FF5F804689469246F9
:103510001E4644460025E06CFFF71AFC054605B13F
:1035200092E0012E37D1E06CFFF72EFC02A80121BA
:10353000CDE90010616C01FB09F200231121E06C60
:10354000FFF7DCFC054615B99DF8080068B105F0E9
:1035500036F807463946AFF2982007F096F9494603
:10356000B7A007F092F900266EE05146626CE06C5D
:10357000FFF7D0FD0546002D65D005F020F8074681
:103580003946AFF2C42007F080F94946ACA007F0F5
:103590007CF9002657E0012E55D9E06CFFF7F4FBCB
:1035A00002A80121CDE90010616C01FB09F20023A2
:1035B0001221E06CFFF7A2FC054615B99DF8080042
:1035C00068B104F0FCFF83465946AFF20C3007F0B7
:1035D0005CF94946A3A007F058F9002634E000271B
:1035E00016E0626C02FB07A1E06CFFF793FD054655
:1035F0006DB104F0E4FF83465946AFF23C3007F06A
:1036000044F9494697A007F040F93E4602E07F1C86
:10361000B742E6D300BF02A80221CDE90010002383
:103620001A460C21E06CFFF769FC054655B104F021
:10363000C6FF83465946AFF2783007F026F994A0CA
:1036400007F023F900BF00BFE06CFFF7B5FBE16CAA
:10365000096C01F1440005F042FD304604B0BDE8BC
:10366000F09F2DE9F04F8DB080468A4691461E4668
:103670004446E06CFFF76CFB054605B1A9E1082064
:103680008DF8250004208DF82400606D0A9009A9AA
:10369000E06C09F027FF012E35D1E06CFFF774FBD9
:1036A0000BA80121CDE90010002352461821E06C3F
:1036B000FFF724FC054615B99DF82C0060B104F015
:1036C0007EFF07463946AFF2084007F0DEF81FA03C
:1036D00007F0DBF800267CE1FE234946626CE06CD3
:1036E000FFF74CFD0546002D0CD004F068FF07469F
:1036F0003946AFF2344007F0C8F851461BA007F036
:10370000C4F8002664E1012EFCD9E06CFFF73CFB15
:103710000BA80121CDE9001000231A463721E06CE7
:10372000FFF7ECFB054615B99DF82C0060B104F0DD
:1037300046FF83465946AFF2784007F0A6F815A039
:1037400007F0A3F8002644E1BEE000005B6572725A
:103750005D20434D442057524954455F424C4F43EE
:103760004B206661696C210D0A0000005B65727276
:103770005D2077726974652053494E474C455F421E
:103780004C4F434B20232564206661696C210D0A50
:10379000000000005B6572725D20434D44353520AA
:1037A0004150505F434D44206661696C210D0A0011
:1037B0005B6572725D2041434D4432332053455462
:1037C0005F424C4F434B5F434F554E5420666169F7
:1037D0006C210D0A000000005B6572725D20434D94
:1037E000442057524954455F4D554C5449504C451F
:1037F0005F424C4F434B206661696C210D0A00000B
:103800005B7761726E696E675D20776169742057BE
:10381000524954455F4D554C5449504C455F424CBC
:103820004F434B2073746F7020746F6B656E207202
:10383000656164792074696D656F7574210D0A0086
:103840005B6572725D20726561642053494E474C1E
:10385000455F424C4F434B20232564206661696CD1
:10386000210D0A005B6572725D20726561642052F1
:103870004541445F4D554C5449504C455F424C4F77
:10388000434B20232564206661696C210D0A0000EA
:103890005B6572725D207265616420524541445FD0
:1038A0004D554C5449504C455F424C4F434B2C2096
:1038B00073656E642073746F7020746F6B656E2017
:1038C0006661696C210D0A000BA80121CDE9001089
:1038D000002332461721E06CFFF710FB054615B9AF
:1038E0009DF82C0068B104F06AFE83465946AFF299
:1038F000306006F0CAFFAFF2481006F0C6FF00269F
:1039000067E00BA80121CDE90010002352461921E0
:10391000E06CFFF7F3FA054615B99DF82C0068B185
:1039200004F04DFE83465946AFF26C6006F0ADFFE1
:10393000AFF25C1006F0A9FF00264AE0002717E06E
:10394000626C02FB0791FC23E06CFFF717FC054655
:103950006DB104F034FE83465946AFF29C6006F028
:1039600094FF5146FAA006F090FF3E4602E07F1C0D
:10397000B742E5D300BF1222FF2101A806F0F5FBF4
:10398000FD208DF8150001A8069000200790122058
:1039900008900A9820F00200410861F300000A90A4
:1039A000E06C016C096C4A6806A99047E06CFFF76F
:1039B0006BFA05465DB104F002FE83465946AFF24C
:1039C000007006F062FFAFF2C81006F05EFF00BFA5
:1039D00000BFE06CFFF7F0F9E16C096C01F1440005
:1039E00005F07DFB30460DB0BDE8F08F2DE9FF5F9F
:1039F00080468A4691461E4644460025E06CFFF705
:103A0000A7F9054605B193E0012E37D1E06CFFF729
:103A1000BBF902A80121CDE9001000235246112173
:103A2000E06CFFF76BFA054615B99DF8080070B118
:103A300004F0C5FD07463946AFF27C7006F025FF5D
:103A40005146AFF2042006F020FF002670E0494600
:103A5000626CE06CFFF75EFB0546002D67D004F05A
:103A6000AEFD07463946AFF2A87006F00EFF51468C
:103A7000AFF2342006F009FF002658E0012E56D997
:103A8000E06CFFF781F902A80121CDE900100023C5
:103A900052461221E06CFFF731FA054615B99DF840
:103AA000080070B104F08BFD83465946AFF2F07008
:103AB00006F0EBFE5146AFF2542006F0E6FE00267B
:103AC00036E0002717E0626C02FB0791E06CFFF71D
:103AD00021FB054675B104F072FD83465946AFF6E9
:103AE000200006F0D2FE5146AFF2882006F0CDFE4F
:103AF0003E4602E07F1CB742E5D300BF02A8022188
:103B0000CDE9001000231A460C21E06CFFF7F6F90E
:103B100005465DB104F053FD83465946AFF660009B
:103B200006F0B3FEAFF2982006F0AFFE00BF00BF74
:103B3000E06CFFF741F9E16C096C01F1440005F01C
:103B4000CEFA304604B0BDE8F09F01B5AAB02A987D
:103B50002990002026902998C06C68B904F02FFDA8
:103B600001462390AFF6A80006F08FFE82A006F073
:103B70008CFE08202BB000BD08208DF889000420A1
:103B80008DF88800864823902998C06C22A921903E
:103B900009F0A8FC2998C06C1E90FFF7D9F8269070
:103BA000269808B101F0A3BB2998C06C1E90FFF7BE
:103BB00003F9FF22642106A819F0C5F906A81F9091
:103BC0000020209064202190239820F002004108DA
:103BD00061F3000023902998C06C0590FFF7D4F89A
:103BE0002998C06C05902998C06C006C006C4068E6
:103BF0001FA90490DDE9042090472998C06C059026
:103C0000FFF7DAF804F0DBFC259035E02998C06C6A
:103C10001E90FFF7B9F827A80121CDE900102998D7
:103C2000C06C9523002211461E90FFF767F926907D
:103C30002998C06C1E90FFF7BFF8269820B99DF810
:103C40009C00012800D118E040F6B83004F0DAFCFE
:103C500001461E902598FFF7C7F868B104F0AFFC45
:103C600001461E90AFF6A81006F00FFE4DA006F01C
:103C70000CFE0220269095E7C8E700BF04F09FFCE9
:103C800001461E90AFF6C81006F0FFFD4FA006F0EB
:103C9000FCFD04F094FC259000BF2998C06C1E9098
:103CA000FFF772F827A80721CDE900102998C06C0A
:103CB00087234FF4D57208211E90FFF71FF9269035
:103CC0002998C06C1E90FFF777F8269800283DD100
:103CD00004F075FC01461E90AFF61C2006F0D5FDE1
:103CE0009DF8A0009DF89F10CDE900109DF89E0062
:103CF0001E909DF89D001D909DF89C001C90014613
:103D00003BA0DDE91D2306F0C0FD9DF89C0000F0FE
:103D1000040000281BD004F052FC01461E90AFF6B0
:103D2000602006F0B2FD41A006F0AFFD04F047FCB4
:103D300001461E90AFF6782006F0A7FD44A006F0DD
:103D4000A4FD0221299880F85010DBE0BEE099E044
:103D50005B6572725D207772697465204D554C54B5
:103D600049504C455F424C4F434B2023256420660D
:103D700061696C210D0A00005B6572725D207468D8
:103D8000652053504920534420646576696365205B
:103D9000686173206E6F20535049210D0A000000A6
:103DA000801A06005B6572725D2053442063617265
:103DB0006420676F746F2049444C45206D6F6465C3
:103DC0002074696D656F7574210D0A005B696E66FC
:103DD0006F5D205344206361726420676F746F20AD
:103DE00049444C45206D6F6465204F4B210D0A00FE
:103DF0005B696E666F5D20434D4438207265737059
:103E00006F6E7365203A2030782530325820307834
:103E100025303258203078253032582030782530FF
:103E20003258203078253032580D0A005B696E66B2
:103E30006F5D20434D443820697320696C6C656761
:103E4000616C20636F6D6D616E642E0D0A00000061
:103E50005B696E666F5D206D617962652056657283
:103E6000312E58205344204D656D6F727920436187
:103E70007264206F72204D4D432063617264210D86
:103E80000A00000004F09BFB01461E90AFF6D03004
:103E900006F0FBFCFAA006F0F8FC0321299880F854
:103EA00050109DF8A000AA2827D19DF89F0020BBA4
:103EB00004F085FB01461E90AFF6FC3006F0E5FCF1
:103EC000FD4806F0E2FC012026906BE6C82004F0D5
:103ED00099FB01461E902598FEF786FF68B104F015
:103EE0006EFB01461E90AFF6284006F0CEFCF3A014
:103EF00006F0CBFC0220269054E69DF8A000AA28EC
:103F00007FF4CBAE00BF299890F85000022870D102
:103F100000201E9008E12998C06C1C90FEF734FF29
:103F200027A90420CDE900012998C06C00231A4676
:103F30003A211C90FEF7E2FF2690269880B129983E
:103F4000C06C1C90FEF738FF04F039FB01461C9052
:103F5000AFF6944006F099FCE1A006F096FC21E64D
:103F60009DF89C0000F0FE0080B12998C06C1C9068
:103F7000FEF722FF04F023FB01461C90AFF6C04081
:103F800006F083FCE6A006F080FCCEE02998C06C29
:103F90001C90FEF711FF9DF89D0024909DF89E1047
:103FA000249801EB002024909DF89F10249801EBA9
:103FB000002024909DF8A010249801EB002024906C
:103FC00004F0FDFA01461C90AFF60C5006F05DFCC3
:103FD000E3A0249906F059FC249800F4004078B935
:103FE00004F0EDFA01461C90AFF62C5006F04DFCA3
:103FF00000E063E2E0A006F048FC01202690D1E555
:1040000004F0DDFA1D908CE04FF4487004F0FAFAE9
:1040100001461C901D98FEF7E7FE80B12998C06C00
:104020001C90FEF7C9FE04F0CAFA01461C90AFF6D8
:10403000705006F02AFCDCA006F027FC72E02998FC
:10404000C06C1C90FEF7A0FE27A80121CDE900104E
:104050002998C06C00231A4637211C90FEF74EFFAA
:104060002690269828B12998C06C1C90FEF7A4FED3
:1040700057E09DF89C0000F0FE0080B12998C06CCC
:104080001C90FEF799FE04F09AFA01461C90AFF6D8
:10409000D05006F0FAFBD2A006F0F7FB42E027A8CA
:1040A0000121CDE900102998C06C00231A4629216E
:1040B0001C90FEF723FF2690269828B12998C06C03
:1040C0001C90FEF779FE2CE09DF89C0000F0FE00AD
:1040D00080B12998C06C1C90FEF76EFE04F06FFA58
:1040E00001461C90AFF6286006F0CFFBC5A006F095
:1040F000CCFB17E09DF89C0090B92998C06C1C90EF
:10410000FEF75AFE01201E9004F059FA01461C9059
:10411000AFF6546006F0B9FBC3A006F0B6FB01E0B1
:1041200000BF71E700BF00E0F5E600BF1E98012860
:1041300072D004F044FA01461B90AFF67C6006F0A2
:10414000A4FBC3A006F0A1FB2998C06C1B90FEF74E
:1041500033FEFF22642103A818F0F5FE03A81F9088
:104160000020209064202190239820F00200410834
:1041700061F30000239000201C900FE02998C06C90
:1041800002902998C06C006C006C40681FA90190D7
:10419000DDE9012090471C98401C1C901C980A28BF
:1041A000ECD304F00CFA1D9037E02998C06C1B90FA
:1041B000FEF7EAFD27A90120CDE900012998C06C8E
:1041C0009523002211461B90FEF798FE2690299811
:1041D000C06C1B90FEF7F0FD269820B99DF89C005E
:1041E000012800D11AE040F6B83004F00BFA01467D
:1041F0001B901D98FEF7F8FD78B104F0E0F9014638
:104200001B90AFF6447006F040FBAFF2684006F03A
:104210003CFB02202690C5E44FE1C6E700BF04F056
:10422000CEF91D9046E12998C06C1B90FEF7ACFDBD
:1042300027A80121CDE900102998C06C00231A4657
:104240001B90FEF75BFE26902998C06C1B90FEF732
:10425000B3FD269890B99DF89C0078B904F0AFF9A9
:1042600001461B90AFF6A87006F00FFB7EA006F08B
:104270000CFB0121299880F850101CE102E100009C
:104280005B696E666F5D20566572322E3030206F2E
:1042900072206C61746572206F7220534448432011
:1042A0006F722053445843206D656D6F727920639F
:1042B000617264210D0A0000741C02005B65727259
:1042C0005D20434D44382053454E445F49465F438B
:1042D0004F4E442074696D656F7574210D0A00009E
:1042E0005B696E666F5D204974206D61796265203F
:1042F0005344312E78206F72204D4D432042757407
:10430000206974206973204E6F7420726573706F1A
:104310006E736520746F20434D443538210D0A00BB
:104320005B696E666F5D204974206C6F6F6B204314
:104330004D44353820617320696C6C6567616C2071
:10434000636F6D6D616E6420736F20697420697393
:10435000206E6F742053442063617264210D0A0043
:104360005B696E666F5D204F435220697320307821
:10437000253038580D0A00005B6572725D20534489
:1043800020312E7820427574206E6F742073757200
:1043900070706F72742063757272656E7420766FC0
:1043A0006C746167650D0A005B696E666F5D2074F1
:1043B000727920434D443535202B2041434D443400
:1043C000312074696D656F757421206D6162657946
:1043D000204D4D432063617264210D0A00000000EE
:1043E0005B696E666F5D204E6F742053442063617D
:1043F000726432202C206D6179206265204D4D431E
:104400000D0A00005B696E666F5D204E6F7420536D
:1044100044206361726434202C206D6179206265D0
:10442000204D4D430D0A00005B696E666F5D2049AB
:104430007420697320566572312E58205344204DE4
:10444000656D6F727920436172642121210D0A002C
:104450005B696E666F5D20747279204D4D432063F9
:10446000617264210D0A00005B696E666F5D204910
:1044700074206973204D4D432063617264212121B2
:104480000D0A000040F6B83004F0BCF801461B905D
:104490001D98FEF7A9FC68B104F091F801461B9045
:1044A000FE4806F0F2F9AFF2047006F0EEF90220D1
:1044B00026900AE5B7E600BF00BF98E1299890F87A
:1044C0005000032872D12998C06C1E90FEF75CFC46
:1044D00027A80421CDE900102998C06C00231A46B2
:1044E0003A211E90FEF70AFD2690269878B1299869
:1044F000C06C1E90FEF760FC04F061F801461E904F
:10450000E64806F0C2F9E6A006F0BFF9DDE49DF842
:104510009C0000F0FE0088B12998C06C1E90FEF748
:104520004BFC04F04CF801461E90DC4806F0ADF957
:10453000E9A006F0AAF901202690C6E42998C06CEB
:104540001E90FEF739FC9DF89D0024909DF89E106A
:10455000249801EB002024909DF89F10249801EBF3
:10456000002024909DF8A010249801EB00202490B6
:1045700004F025F801461E90C84806F086F9AFF20F
:104580002020249906F081F9249800F4004070B9A5
:1045900004F015F801461E90C04806F076F9AFF217
:1045A000282006F072F9012026908EE412E104F032
:1045B00006F8259000BF2998C06C1E90FEF7E4FB1A
:1045C0004FF4487004F01EF801461E902598FEF73F
:1045D0000BFC88B12998C06C1E90FEF7EDFB03F030
:1045E000EEFF01461E90AD4806F04FF9CAA006F056
:1045F0004CF90120269068E427A80121CDE900109C
:104600002998C06C6523002237211E90FEF776FCA6
:104610002690269828B12998C06C1E90FEF7CCFBF6
:1046200050E09DF89C0000F0FE0088B12998C06C15
:104630001E90FEF7C1FB03F0C2FF01461E90974893
:1046400006F023F9C2A006F020F9012026903CE4F0
:1046500027A80121CDE900102998C06C77238A078B
:1046600029211E90FEF74AFC2690269888B12998A9
:10467000C06C1E90FEF7A0FB03F0A1FF01461E9048
:10468000864806F002F9B8A006F0FFF8012026904F
:104690001BE49DF89C0000F0FE0090B12998C06CCE
:1046A0001E90FEF789FB03F08AFF01461E907B48AF
:1046B00006F0EBF89DF89C0001461E90B0A006F0B5
:1046C000E4F800BF9DF89C0000287FF474AF29989F
:1046D000C06C1E90FEF770FB2998C06C1E90FEF710
:1046E00053FB27A80421CDE900102998C06C0023B2
:1046F0001A463A211E90FEF701FC2690269878B1C2
:104700002998C06C1E90FEF757FB03F058FF014636
:104710001E90624806F0B9F8A4A006F0B6F81EE4B0
:104720009DF89C0000F0FE0088B12998C06C1E9096
:10473000FEF742FB03F043FF01461E90574806F088
:10474000A4F8A94806F0A1F80120269007E42998CA
:10475000C06C1E90FEF730FB9DF89D0024909DF8E4
:104760009E10249801EB002024909DF89F1024981F
:1047700001EB002024909DF8A010249801EB00206C
:10478000249003F01CFF01461E90444806F07DF87B
:1047900096A0249906F079F8249800F0804070B132
:1047A00003F00DFF01461E903C4806F06EF897A0FE
:1047B00006F06BF80421299880F8501017E003F0F8
:1047C000FEFE01461E90354806F05FF898A006F000
:1047D0005CF80CE003F0F3FE01461E902F4806F053
:1047E00054F89FA006F051F80120269007E429987C
:1047F00090F85000042806D1A1492A980163A149E4
:104800002A98416305E0A0492A9801639F492A98A4
:1048100041632998C06C2390FEF7CEFA2998C06CAA
:104820002390FEF7B1FA27A80121CDE900102998BD
:10483000C06C912300223B212390FEF75FFB269062
:104840002998C06C2390FEF7B7FA269810B99DF806
:104850009C0080B103F0B3FE014623900F4806F0A0
:1048600014F89DF89C000146239089A006F00DF8ED
:1048700001202690CFE42998C06C2390FEF79CFA83
:104880002998C06C2390FEF77FFA27A80121CDE973
:1048900000102998C06C00234A0213E1C0320000C6
:1048A0005B6572725D204974206D61796265205389
:1048B00044322E3020427574206974206973204E72
:1048C0006F7420726573706F6E736520746F204310
:1048D0004D443538210D0A005B6572725D204974C4
:1048E000206C6F6F6B20434D443538206173206915
:1048F0006C6C6567616C20636F6D6D616E642073B5
:104900006F206974206973206E6F74205344206394
:10491000617264210D0A00005B6572725D20534470
:1049200020566572322E78206F72206C6174657229
:104930002074727920434D443535202B2041434D5E
:104940004434312074696D656F7574210D0A00005F
:104950005B6572725D204E6F7420534420726561F6
:104960006479210D0A0000005B6572725D2041438D
:104970004D443431206661696C210D0A000000004D
:104980005B696E666F5D204E6F74205344206361D7
:10499000726434202C20726573706F6E7365203AD8
:1049A000203078253032580D0A0000005B657272A5
:1049B0005D204974206D61796265205344322E3048
:1049C00020427574206974206973204E6F742072C0
:1049D0006573706F6E736520746F20326E64204350
:1049E0004D443538210D0A00301C02005B696E66AB
:1049F0006F5D204F435220326E64207265616420E7
:104A00006973203078253038580D0A005B696E666E
:104A10006F5D204974206973205344322E30205337
:104A200044484320436172642121210D0A000000A3
:104A30005B696E666F5D2049742069732053443250
:104A40002E30207374616E646172642063617061E2
:104A50006369747920436172642121210D0A000089
:104A60005B6572725D2053442063617264207479C7
:104A7000706520756E6B6F6E77210D0A0000000067
:104A8000ED39000063360000073500003B320000BE
:104A90005B6572725D20434D443539204352435F5C
:104AA0004F4E5F4F4646206661696C2120726573E8
:104AB000706F6E7365203A203078253032580D0AB9
:104AC0000000000010212390FEF718FA2690299884
:104AD000C06C2390FEF770F9269810B99DF89C00E1
:104AE00080B103F06CFD01462390FE4805F0CDFE39
:104AF0009DF89C0001462390FBA005F0C6FE012016
:104B00002690F4E34FF40071299881642998416458
:104B10002998C06C1F90FEF737F927A80121CDE92D
:104B200000102998C06C00231A4609211F90FEF737
:104B3000E5F92690269878B12998C06C1F90FEF769
:104B40003BF903F03CFD01461F90E64805F09DFE51
:104B5000F2A005F09AFECAE3269810B99DF89C00D1
:104B6000A8B12998C06C1F90FEF726F903F027FD25
:104B700001461F90DB4805F088FE9DF89C00014629
:104B80001F90EEA005F081FE01202690AFE329984A
:104B9000C06C102220A91F90FEF7BCFA269029981D
:104BA000C06C1F90FEF708F9269850B103F007FD7E
:104BB00001461F90CB4805F068FEECA005F065FEAD
:104BC00095E39DF8800000F0C0001C901C988011B7
:104BD0001F90299890F8500001286FD11F98022843
:104BE0000DDD03F0ECFC01461790BE4805F04DFECC
:104BF000E4A01F9905F049FE0120269077E31F9855
:104C000050B903F0DCFC01461790B64805F03DFEB4
:104C1000E4A005F03AFE1AE01F9801280AD103F03B
:104C2000CEFC01461790AF4805F02FFEE5A005F039
:104C30002CFE0CE01F98022809D103F0C0FC0146AD
:104C40001790A84805F021FEE6A005F01EFE9DF88D
:104C500083001C901C9800F003001C901C9818B94D
:104C6000E8492998416513E01C98012803D1E649D9
:104C7000299841650CE01C98022803D1E349299842
:104C8000416505E01C98032802D1E1492998416556
:104C90001C98A0B903F093FC01461790914805F0C9
:104CA000F4FD2998406D4FF47A71B0FBF1F00246A3
:104CB0001790D8A01C9905F0E8FD15E099E003F0E5
:104CC0007EFC01461790874805F0DFFD2998406D6E
:104CD0004FF47A71B0FBF1F0B0FBF1F0024617909F
:104CE000D6A01C9905F0D1FD9DF8850000F00F00BD
:104CF0001C901C98189003F062FC014617907948AC
:104D000005F0C3FD0121189801FA00F00246179042
:104D1000D4A0189905F0B9FD9DF8860000F00300B5
:104D20001B904FF6FF711B9801EA00201B909DF825
:104D300087101B9808441B904FF6FF711B9801EADF
:104D400080001B909DF8880000F0C0001C901C980B
:104D500080111C90DDE91B0108441B901B981E90DC
:104D600003F02DFC014617905E4805F08EFDC7A0AC
:104D70001E9905F08AFD9DF8890000F003001C9043
:104D80001C9840001C909DF88A101C9800EBD110D4
:104D90001C901C98199003F012FC01461790514882
:104DA00005F073FDC0A0199905F06FFD0121189859
:104DB00081401998801C012282401E98401C424369
:104DC00001FB02F01D902998416C1D98B0FBF1F198
:104DD0002998016403F0F3FB01461790414805F060
:104DE00054FD1D98000D01461790B7A005F04DFD2C
:104DF0006DE21F98002873D103F0E1FB0146179084
:104E0000384805F042FDB9A005F03FFD9DF883004C
:104E10001C901C98322803D17C492998416509E0EF
:104E20001C985A2803D1B8492998416502E076496F
:104E30002998416503F0C3FB01461790294805F006
:104E400024FD2998406D4FF47A71B0FBF1F0B0FB6E
:104E5000F1F00246179079A01C9905F016FD9DF817
:104E6000850000F00F001C901C98189003F0A7FB21
:104E7000014617901B4805F008FD0121189801FA1A
:104E800000F00246179077A0189905F0FEFC9DF8F7
:104E9000860000F003001B904FF6FF711B9801EA9B
:104EA00000201B909DF887101B9808441B904FF61C
:104EB000FF711B9801EA80001B909DF8880000F0AC
:104EC000C0001C901C9880111C90DDE91B01084457
:104ED0001B901B981E9003F072FB0146179015E182
:104EE0005CE10000C03200005B6572725D20434DE2
:104EF000443136205345545F424C4F434B4C454E52
:104F0000206661696C2120726573706F6E73652015
:104F10003A203078253032580D0A00005B657272F5
:104F20005D20434D44392053454E445F4353442054
:104F300074696D656F7574210D0A00005B6572728E
:104F40005D20434D44392053454E445F4353442034
:104F50006661696C2120726573706F6E7365203AAB
:104F6000203078253032580D0A0000005B657272DF
:104F70005D207265616420435344206661696C2141
:104F80000D0A00005B6572725D206261642043530C
:104F9000442056657273696F6E203A2025640D0AAD
:104FA000000000005B696E666F5D2043534420760D
:104FB000657273696F6E204E6F2E20312E300D0A90
:104FC000000000005B696E666F5D204353442076ED
:104FD000657273696F6E204E6F2E20312E310D0A6F
:104FE000000000005B696E666F5D204353442076CD
:104FF000657273696F6E204E6F2E20312E320D0A4E
:1050000000000000A086010040420F00809698003A
:1050100000E1F5055B696E666F5D205452414E5F9D
:1050200053504545443A203078253032582C2025BD
:10503000646B6269742F732E0D0A00005B696E66E3
:105040006F5D205452414E5F53504545443A2030E5
:1050500078253032582C2025644D6269742F732EC8
:105060000D0A00005B696E666F5D20435344203A71
:1050700020524541445F424C5F4C454E203A20252A
:1050800064202564627974650D0A00005B696E66B0
:105090006F5D20435344203A20435F53495A4520D3
:1050A0003A2025640D0A00005B696E666F5D20433F
:1050B0005344203A20435F53495A455F4D554C5461
:1050C000203A2025640D0A005B696E666F5D2063DF
:1050D000617264206361706163697479203A20258C
:1050E00064204D627974650D0A0000005B696E668C
:1050F0006F5D204353442056657273696F6E203193
:105100002E300D0A0000000080F0FA02B34805F0CE
:10511000BCFBAFF288001E9905F0B7FB9DF8890033
:1051200000F003001C901C9840001C909DF88A1011
:105130001C9800EBD1101C901C98199003F03FFABA
:1051400001461790A54805F0A0FBAFF2A4001999FD
:1051500005F09BFB0121189881401998801C0122C1
:1051600082401E98401C424301FB02F01D9029988A
:10517000416C1D98B0FBF1F12998016403F01FFA0E
:1051800001461790954805F080FB1D98000D0146DB
:105190001790AFF2CC0005F078FB98E01F9801283B
:1051A0007ED103F00CFA014619908C4805F06DFB96
:1051B0008BA005F06AFB9DF883001C901C98322898
:1051C00003D18E492998416517E01C985A2803D1CC
:1051D0008B492998416510E01C980B2803D1894917
:1051E0002998416509E01C982B2803D18649299804
:1051F000416502E085492998416503F0E0F90146DF
:105200001990764805F041FB2998406D4FF47A716A
:10521000B0FBF1F0B0FBF1F002461990AFF2E410F0
:105220001C9905F032FB9DF8870000F03F001A90B2
:105230001A9800021A909DF888101A9808441A903B
:105240001A9800021A909DF889101A9808441A902A
:105250001A981E9003F0B3F9014619905F4805F0C3
:1052600014FBAFF2D8101E9905F00FFB1E98401CDE
:1052700040081D901D9881022998016403F09FF950
:1052800001461990554805F000FB1D98C0F309012F
:10529000642011FB00F0800A19901D98800A00E03C
:1052A00006E0189001465AA0199A05F0EEFA0EE0B1
:1052B00003F085F901461990484805F0E6FAAFF287
:1052C0003C301F9905F0E1FA012026900FE00820FC
:1052D0008DF8890004208DF888002998406D23906E
:1052E0002998C06C22A9219008F0FCF800BF2998E9
:1052F000C06C2390FDF760FD2998C06C006C4430B1
:10530000239003F0ECFE2698FEF734BC0246002002
:1053100070470146002070472DE9F04105460F46D1
:1053200016462C462DB940F26562434943A005F06C
:1053300088FB102F0CD1314619B94FF0FF30BDE872
:10534000F081606C4860A06C8860206C086000BFD1
:105350000020F4E72DE9F04104460D4600272846D9
:1053600003F05EF906466EB903F029F9804641461E
:105370001A4805F08AFA294634A005F086FAB81FC3
:10538000BDE8F08158220021374804F0EEFE36488F
:10539000C664012034490875002133484164002067
:1053A0003149086400213048816430482E49486200
:1053B0002F4888622F48C8620020086348632E483F
:1053C00088630020C863C86108620F22214626480E
:1053D00003F04CF907463846D2E70000C03200001F
:1053E0005B696E666F5D2043534420566572736936
:1053F0006F6E20322E300D0A00000000809698005B
:1054000080F0FA0200E1F50500C2EB0B40420F000C
:105410005B696E666F5D20636172642063617061B9
:1054200063697479203A2025642E256420476279C7
:1054300074650D0A0000000005D601006465762041
:10544000213D2052545F4E554C4C00007370692032
:10545000646576696365202573206E6F7420666FBE
:10546000756E64210D0A0000740500044B3B0000BA
:105470000D530000135300001953000010B504F041
:105480001FFE70E0F8480068002867D0F748006801
:10549000001FF749096888421FD3F648006830B9F1
:1054A000F5480068F24909684058F4490860F14835
:1054B0000068012806D1F2480068ED4909684058A3
:1054C000EE490860ED480168EE4800F02FFEE8481C
:1054D0000068001DE64908602BE0E648006818B93E
:1054E0000120E449086002E00020E2490860012050
:1054F000DD4908600020DE490860DE48006828B900
:10550000DD48006809684058DC490860D9480068EF
:10551000012806D1DA480068D54909684058D749BA
:105520000860D6480168D74800F000FE0420D04942
:105530000860CD480068012815D10220CA490860DA
:10554000D148006818B90120CF49086002E0002066
:10555000CD490860CD4803F0ECFB04E0C748016882
:10556000C84800F0E3FD00BFC948006800F0200013
:10557000002887D100BF0320C549086000BF04F0A0
:10558000AEFD10BD10B5002404F09AFD03E000BF8D
:10559000C0480068044600BFBE482C38006800F0D0
:1055A00040000028F3D100BF0320BA492C3908601D
:1055B00000BF04F094FD10BD10B5B7A005F065F96B
:1055C000812305220021B94800F0AAFD812306228B
:1055D0000021B64800F0A4FD812307220021B34832
:1055E00000F09EFD822306220121B04800F098FDC4
:1055F000822307220121AD4800F092FD8223082278
:105600000121AA4800F08CFD10BD704710B504467A
:10561000A7A005F03AF9AA499A4802F069FE0221CA
:10562000072000F078FDA649964802F07AFEA449CA
:10563000944802F00DFF0522A149924802F0A6FF0E
:1056400000229F498F4802F0A1FF9E499E4802F028
:105650004FFE0221062000F05EFD9A499A4802F0B2
:1056600060FE9849984802F0F3FE0022954996485A
:1056700002F08CFF0521834800F05BFD0A2192486F
:1056800000F057FD10BD7FB505460C468F48C06E33
:1056900020B9D6228E498FA005F0D3F98DF800509D
:1056A00020128DF80100E0B28DF802001A20ADF84A
:1056B00004000020ADF806000320ADF80800CDF886
:1056C0000CD082490122C86E01A9FDF74FF97FBDB8
:1056D00070B505462946864801F0F0FBA88908B94F
:1056E000012403E083A005F0D0F80024204670BD1B
:1056F00070B506460C4685488549486002204881B9
:1057000084480860012008811A2088738148067047
:10571000002088810846FFF7DBFF7D48808940B97B
:105720007A4840787949097840EA012020800125AB
:1057300002E0002020800025284670BD70B5054697
:105740000C46392D06D17448006864F31F40724935
:1057500008601BE03A2D07D16F4800686FF30F0017
:1057600020436D49086011E02C2D06D16B4800687C
:1057700064F31F406949086008E02D2D06D1674891
:1057800000686FF30F002043644908605F48604978
:105790004860002048815F480860032008811A2083
:1057A00088735C480570200A5A4948708C70002044
:1057B000574988810846FFF78BFF5548808908B90B
:1057C000012070BD0020FCE7F8B505460F4600201B
:1057D000534908600024DAE035F82400FF282AD174
:1057E000BDF8002070214FA005F04FF800204C4973
:1057F000086000BF4A480068401C494908603220E0
:1058000006F0B2FA69467020FFF772FFBDF800207B
:10581000702144A005F039F8BDF8000000F0010047
:105820000028E7D13E480068322200FB02F145A083
:1058300005F02BF8AAE000BF05EB8402518815F8AB
:105840002400FFF77BFF064605EB8400428835F80D
:10585000241040A005F019F816B946A005F015F877
:1058600006B997E092E00000AC000004A00000043C
:105870009C000004A400000490000004B000000498
:105880009400000400800940A80000043C060004C5
:10589000048E0940307E0940636F6465635F677002
:1058A000696F5F636F6E6669670D0A0000100040E4
:1058B00069327320636F6E6669670D0A000000002D
:1058C000580000047000000400700940CC0500047A
:1058D000D4D90100636F6465632E6932635F6465C8
:1058E0007669636520213D2052545F4E554C4C0033
:1058F00000A00840693263207472616E736665723D
:10590000206661696C65640D0A0000006C06000485
:105910007C0600045C060004B8000004BC0000041F
:10592000C000000449324320726567697374657270
:105930003A30782530327820726561643A25780DE6
:105940000A00000064656C61793A2025646D730D6E
:105950000A000000493243207265676973746572FA
:105960003A3078253032782077726974653A257834
:105970000D0A0000493243207265676973746572CD
:10598000206661696C65640D0A000000641CBC42FD
:10599000FFF422AF00BFF8BD10B50446F7A004F035
:1059A00074FF002010BD70B50446F8480068060C6E
:1059B000F648008885B204F03F0426F03F0625F043
:1059C0003F052643254331463920FFF7B7FE2946D8
:1059D0003A20FFF7B3FE45F080013A20FFF7AEFE14
:1059E00070BD10B50446E0B2FFF7DDFF10BD38B55D
:1059F000002417E0E649085D6946FFF779FE04F0E8
:105A0000070010B9AFF2980000E0E2A00146E2A062
:105A100004F03BFFDE48015DBDF80020DFA004F08C
:105A200034FF641C622CE5D338BD2DE9F0410746F4
:105A30000D46164601244AF64440854206D04BF6F0
:105A40008030854202D00020BDE8F0810021162080
:105A5000FFF774FE0440052000EB872081B215207B
:105A6000FFF76CFE04404FF00308202E06DAA6F183
:105A70001000C11700EB91714FEAA108022000EB62
:105A8000880081B21920FFF759FE04400E2116202C
:105A9000FFF754FE04402046D6E710B50446102216
:105AA00021460320FFF7C1FF38B12146BEA004F014
:105AB000ECFEFFF79CFF002010BD2146C2A004F0C1
:105AC000E4FE4FF0FF30F7E710B504462046FFF73D
:105AD000E4FF002010BD38B569460020FFF708FE3E
